:100000000C9463000C948B000C948B000C948B006C
:100010000C948B000C948B000C948B000C948B0034
:100020000C948B000C948B000C948B000C948B0024
:100030000C948B000C948B000C948B000C948B0014
:100040000C943E030C948B000C948B000C948B004E
:100050000C948B000C948B000C948B000C948B00F4
:100060000C948B000C948B000000000023002600F1
:10007000290000000000240027002A0000000000E2
:10008000250028002B0004040404040404040202D4
:100090000202020203030303030301020408102007
:1000A0004080010204081020010204081020000012
:1000B0000008000201000003040700000000000027
:1000C00000006E049F0411241FBECFEFD8E0DEBFF6
:1000D000CDBF21E0AEE4B1E001C01D92A738B20768
:1000E000E1F711E0A0E0B1E0EEEEFDE002C0059026
:1000F0000D92AE34B107D9F710E0C2E6D0E004C0EB
:100100002197FE010E94E804C136D107C9F70E9479
:10011000D6030C94EA060C940000833081F028F496
:10012000813099F08230A1F008958730A9F08830AD
:10013000B9F08430D1F4809180008F7D03C080912C
:1001400080008F7780938000089584B58F7702C0F8
:1001500084B58F7D84BD08958091B0008F7703C0F2
:100160008091B0008F7D8093B00008951F93CF934E
:10017000DF93282F30E0F901E255FF4F8491F90118
:10018000E656FF4FD491F901EA57FF4FC491CC23B3
:10019000C1F0162F81110E948D00EC2FF0E0EE0FC0
:1001A000FF1FE458FF4FA591B4919FB7F894111128
:1001B00004C08C91D095D82302C0EC91DE2BDC9347
:1001C0009FBFDF91CF911F910895CF93DF9390E070
:1001D000FC01E656FF4F2491FC01EA57FF4F849142
:1001E000882361F190E0880F991FFC01EE58FF4FC2
:1001F000C591D491FC01E458FF4FA591B4916111D0
:1002000009C09FB7F8948881209582238883EC9158
:100210002E230BC0623061F49FB7F8948881322F8F
:10022000309583238883EC912E2B2C939FBF06C09F
:100230008FB7F894E8812E2B28838FBFDF91CF9161
:1002400008953FB7F8948091670190916801A0915B
:100250006901B0916A0126B5A89B05C02F3F19F02E
:100260000196A11DB11D3FBFBA2FA92F982F882736
:10027000820F911DA11DB11DBC01CD0142E0660F91
:10028000771F881F991F4A95D1F708958F929F92E3
:10029000AF92BF92CF92DF92EF92FF926B017C01FF
:1002A0000E9421014B015C01C114D104E104F1045D
:1002B000F1F00E942101DC01CB0188199909AA09FA
:1002C000BB09883E9340A105B10570F321E0C21A35
:1002D000D108E108F10888EE880E83E0981EA11C81
:1002E000B11CC114D104E104F10419F7DDCFFF9072
:1002F000EF90DF90CF90BF90AF909F908F90089538
:10030000CF92DF92EF92FF920F931F93CF93DF93E1
:100310006C017A018B01C0E0D0E0CE15DF0581F0E1
:10032000D8016D918D01D601ED91FC910190F08184
:10033000E02DC6010995892B11F02196EECF7E01A3
:10034000C701DF91CF911F910F91FF90EF90DF9048
:10035000CF900895CF93DF93EC0160E08E810E94EF
:10036000B60061E08E810E94B60060E08E810E943E
:10037000B6008BE891E00197F1F7DF91CF910895F6
:10038000CF92DF92EF92FF920F931F93CF93DF9361
:100390006C017C0187E0E80EF11CC0E0D0E0062F84
:1003A00010E0B8010C2E02C0759567950A94E2F72B
:1003B0006170F70181917F010E94B6002196C430DF
:1003C000D10579F7C601DF91CF911F910F91FF9071
:1003D000EF90DF90CF900C94AA01CF92DF92EF9232
:1003E000FF920F931F93CF93DF93EC01F62E642FB0
:1003F0008C810E94B6008D818F3F19F060E00E94D1
:10040000B6008F850F2D10E084FF25C06E0187E0B8
:10041000C80ED11CE12CF12CB8010E2C02C0759530
:1004200067950A94E2F76170F60181916F010E946D
:10043000B600FFEFEF1AFF0A88E0E816F10461F753
:10044000CE01DF91CF911F910F91FF90EF90DF9040
:10045000CF900C94AA01B80184E0759567958A95B0
:10046000E1F7CE010E94C0016F2DCE01DF91CF9147
:100470001F910F91FF90EF90DF90CF900C94C001EF
:1004800040E0682F8BE691E00C94ED01CF93DF9371
:10049000623028F090917A01986090937A0160938D
:1004A0007E0110927F0190E49093800180938101FE
:1004B00090E0805C9F4F8093820161E080916F01AA
:1004C0000E94E500809170018F3F19F061E00E9469
:1004D000E50061E0809171010E94E500CBE6D1E08A
:1004E0009E012B56314080917A0184FD03C084E047
:1004F00090E002C088E090E02196281739072CF49C
:1005000061E08E810E94E500EBCF8BE39DE00197D7
:10051000F1F760E080916F010E94B60060E0809189
:1005200071010E94B600809170018F3F19F060E068
:100530000E94B60080917A0184FD20C063E08BE6C2
:1005400091E00E94C001CBE4D6E4CE010197F1F71F
:1005500063E08BE691E00E94C0012197F1F763E030
:100560008BE691E00E94C00183E592E00197F1F7EC
:1005700062E08BE691E00E94C00115C080620E949B
:1005800040028BE496E40197F1F780917A01806252
:100590000E94400283E592E00197F1F780917A0191
:1005A00080620E94400280917A0180620E94400233
:1005B00084E080937B018CE00E94400281E00E94F5
:1005C00040028BE39FE10197F1F782E080937C0189
:1005D00086E0DF91CF910C94400241E00E94ED0152
:1005E00081E090E00895089580E090E00895CF9331
:1005F000DF93EC0181E00E9440028BE39FE10197D1
:10060000F1F7E1E080917E018111E0E0E195F0E019
:10061000E559FE4F848980680E94400248E050E01E
:1006200062E171E08BE691E00E948001E0917E0141
:10063000E23010F4E15001C0E1E0F0E0E559FE4F96
:10064000848980680E94400286E08C9FF0018D9F23
:10065000F00D1124E25BFE4F448155816081718170
:100660008BE691E00E9480016AEF70E080E090E00C
:10067000DF91CF910C9446010E94D5061F920F92F4
:100680000FB60F9211242F933F938F939F93AF93A5
:10069000BF938091630190916401A0916501B09135
:1006A00066013091620123E0230F2D3720F401967B
:1006B000A11DB11D05C026E8230F0296A11DB11D85
:1006C000209362018093630190936401A09365017C
:1006D000B09366018091670190916801A0916901D2
:1006E000B0916A010196A11DB11D8093670190939D
:1006F0006801A0936901B0936A01BF91AF919F9186
:100700008F913F912F910F900FBE0F901F901895D2
:10071000EF92FF920F931F93CF93DF93EC01198217
:1007200018821B821A821D821C8261157105B9F123
:100730007B01FB0101900020E9F731978F01061B37
:10074000170BB8016F5F7F4F80E090E00E940F06AB
:10075000009759F0998388831B830A832C813D81FC
:10076000232B81F4FC0110820DC0888199810097B0
:1007700011F00E948605198218821D821C821B823C
:100780001A820DC01D830C83B70188819981DF9186
:10079000CF911F910F91FF90EF900C94E306DF91A2
:1007A000CF911F910F91FF90EF900895789484B5A9
:1007B000826084BD84B5816084BD85B5826085BD5D
:1007C00085B5816085BD80916E00816080936E00EB
:1007D00010928100809181008260809381008091DD
:1007E000810081608093810080918000816080938E
:1007F00080008091B10084608093B1008091B0004E
:1008000081608093B00080917A00846080937A0048
:1008100080917A00826080937A0080917A00816072
:1008200080937A0080917A00806880937A00109299
:10083000C10062E080E20E94460260E082E00E9425
:10084000E50061E082E00E94B600C0EBD0E00CE978
:1008500010E098E8E92E90E0F92E20E0C22E20E08A
:10086000D22EFE018491F801A490F701B490BB2030
:1008700071F081110E948D00EB2DF0E0EE0FFF1F53
:10088000E859FF4FA591B4918C918A21F1F48090A1
:100890006001909061015401FFEFAF1ABF0AB0925E
:1008A0006101A092600168EC70E080E090E00E943D
:1008B000460184E0A816B10479F410926101109207
:1008C000600180E090E00E94F702C114D10409F4B5
:1008D000C8CF0E940000C5CFC401F5CF6BE171E025
:1008E0008EE491E00E94880369E271E084E591E082
:1008F0000E94880368E371E08AE591E00E94880322
:10090000EBE6F1E0138212828AE091E0918380832A
:1009100086E084838FEF858387E0868389E0878301
:100920008AE080878BE081878CE08287138614863B
:1009300015861686178661E080E10C944602CF93F7
:10094000DF93CEE4D1E08C859D850E9486058E8163
:100950009F810E94860588819981DF91CF910C94B7
:1009600086052F923F924F925F926F927F928F9265
:100970009F92AF92BF92CF92DF92EF92FF920F932E
:100980001F93CF93DF93CDB7DEB7CA1BDB0B0FB638
:10099000F894DEBF0FBECDBF09942A8839884888F5
:1009A0005F846E847D848C849B84AA84B984C8848B
:1009B000DF80EE80FD800C811B81AA81B981CE0F82
:1009C000D11D0FB6F894DEBF0FBECDBFED01089567
:1009D000EE0FFF1F0590F491E02D09940F931F93E4
:1009E000CF93DF938230910510F482E090E0E091A4
:1009F0008501F091860120E030E0A0E0B0E0309782
:100A000019F1408151810281138148175907C8F0BB
:100A10008417950769F4109731F012960C9312978A
:100A200013961C9327C0009385011093860122C062
:100A30002115310519F04217530718F49A01BD0129
:100A4000EF01DF01F801DBCF21153105F9F0281B9B
:100A5000390B2430310580F48A819B816115710541
:100A600021F0FB019383828304C0909386018093DD
:100A70008501FE01329644C0FE01E20FF31F81930F
:100A8000919322503109398328833AC02091830100
:100A900030918401232B41F4209102013091030114
:100AA0003093840120938301209100013091010152
:100AB0002115310541F42DB73EB740910401509105
:100AC0000501241B350BE0918301F0918401E217AD
:100AD000F307A0F42E1B3F0B2817390778F0AC0161
:100AE0004E5F5F4F2417350748F04E0F5F1F50933E
:100AF0008401409383018193919302C0E0E0F0E090
:100B0000CF01DF91CF911F910F910895CF93DF9384
:100B1000009709F481C0FC01329713821282A091E0
:100B20008501B0918601109781F420813181820F77
:100B3000931F20918301309184012817390751F5C3
:100B4000F0938401E093830167C0ED0120E030E081
:100B5000CE17DF0740F44A815B819E0141155105A4
:100B6000F1F0EA01F5CFD383C28340815181840F34
:100B7000951FC817D90759F488819981840F951F4B
:100B80000296918380838A819B819383828321153E
:100B9000310529F4F0938601E09385013DC0E90118
:100BA000FB83EA8349915991C40FD51FEC17FD07C8
:100BB00061F480819181840F951F0296E9019983E8
:100BC0008883828193819B838A83E0E0F0E01296A0
:100BD0008D919C911397009719F0FD01DC01F7CFDF
:100BE0008D919C9111979D012E5F3F4F820F931F16
:100BF00020918301309184012817390769F43097D7
:100C000029F4109286011092850102C0138212828B
:100C1000B0938401A0938301DF91CF910895A0E068
:100C2000B0E0E5E1F6E00C94B504EC01009721F4A6
:100C3000CB010E94EE04B4C0FC01E60FF71F9C013B
:100C400022503109E217F30708F4A8C0D9010D9129
:100C50001C91119706171707B0F00530110508F41D
:100C60009BC0C80104978617970708F495C00250E7
:100C70001109061B170B019311936D937C93CF0100
:100C80000E94860589C05B01A01AB10A4C01800E42
:100C9000911EA0918501B0918601612C712CE12CEF
:100CA000F12C109709F446C08D919C911197A815CD
:100CB000B905B1F56C0142E0C40ED11CCA14DB04C5
:100CC00078F14C018A189B08640142E0C40ED11CE3
:100CD0001296BC9012971396AC91B5E0CB16D10446
:100CE00040F0B282A38391828082D9016D937C937C
:100CF00009C00E5F1F4F800F911FF9019183808300
:100D0000EB2DFA2FE114F10431F0D7011396FC9387
:100D1000EE93129741C0F0938601E09385013CC0A9
:100D20006816790608F43C017D0112960D90BC917D
:100D3000A02DB7CF809183019091840188169906E8
:100D4000E1F466167706C8F48091000190910101E4
:100D5000009741F48DB79EB7409104015091050171
:100D6000841B950BE817F907C8F4F0938401E0930E
:100D70008301F901718360830FC0CB010E94EE04EF
:100D80007C01009759F0A801BE010E94DA06CE014D
:100D90000E948605C70104C0CE0102C080E090E039
:100DA000CDB7DEB7EEE00C94D10481E090E0F8948A
:100DB0000C94EA06FB01DC0102C001900D92415047
:100DC0005040D8F70895FB01DC0101900D920020FE
:100DD000E1F7089510E0C2E6D0E004C0FE010E94F1
:0E0DE000E8042196C336D107C9F7F894FFCF77
:100DEE0000008701800000000000ED028001F40287
:100DFE00F302496E67617420334D004D656E6A6172
:100E0E006761206A6172616B004D656E637563691F
:100E1E002074616E67616E004D656E6768696E6401
:0E0E2E00617269204B6572756D756E616E00A4
:00000001FF
