:100000000C945C000C9479000C9479000C947900A9
:100010000C9479000C9479000C9479000C9479007C
:100020000C9479000C9479000C9479000C9479006C
:100030000C9479000C9479000C9479000C9479005C
:100040000C94ED000C9479000C9479000C947900D8
:100050000C9479000C9479000C9479000C9479003C
:100060000C9479000C947900000000002400270013
:100070002A0000000000250028002B0004040404CE
:100080000404040402020202020203030303030342
:10009000010204081020408001020408102001021F
:1000A00004081020000000080002010000030407FB
:1000B000000000000000000011241FBECFEFD8E0B8
:1000C000DEBFCDBF11E0A0E0B1E0E2ECF3E002C0A2
:1000D00005900D92A830B107D9F721E0A8E0B1E072
:1000E00001C01D92A131B207E1F70E9437010C94C3
:1000F000DF010C94000090E0FC01EC55FF4F2491CF
:10010000FC01E057FF4F3491FC01E458FF4FE491AC
:10011000EE2309F43CC0222339F1233091F038F466
:100120002130A9F0223001F584B58F7D12C027302F
:1001300091F02830A1F02430B9F4809180008F7DB7
:1001400003C0809180008F77809380000DC084B5BC
:100150008F7784BD09C08091B0008F7703C08091F4
:10016000B0008F7D8093B000F0E0EE0FFF1FEE58DF
:10017000FF4FA591B4919FB7F894611104C08C9181
:100180003095382302C0EC913E2B3C939FBF0895DD
:100190003FB7F89480910D0190910E01A0910F014D
:1001A000B091100126B5A89B05C02F3F19F001960C
:1001B000A11DB11D3FBFBA2FA92F982F8827820FED
:1001C000911DA11DB11DBC01CD0142E0660F771F3D
:1001D000881F991F4A95D1F708951F920F920FB665
:1001E0000F9211242F933F938F939F93AF93BF93BD
:1001F0008091090190910A01A0910B01B0910C012D
:100200003091080123E0230F2D3720F40196A11D22
:10021000B11D05C026E8230F0296A11DB11D209334
:1002200008018093090190930A01A0930B01B093F8
:100230000C0180910D0190910E01A0910F01B091E0
:1002400010010196A11DB11D80930D0190930E0127
:10025000A0930F01B0931001BF91AF919F918F9127
:100260003F912F910F900FBE0F901F90189578948B
:1002700084B5826084BD84B5816084BD85B58260AB
:1002800085BD85B5816085BD80916E00816080935C
:100290006E001092810080918100826080938100C5
:1002A00080918100816080938100809180008160D5
:1002B000809380008091B10084608093B100809130
:1002C000B00081608093B00080917A008460809358
:1002D0007A0080917A00826080937A0080917A001F
:1002E000816080937A0080917A00806880937A00A0
:1002F0001092C100A0E0B1E08D919D919927FC0181
:10030000E057FF4F2491FC01E458FF4F849188236C
:1003100099F090E0880F991FFC01E859FF4FC591B3
:10032000D491FC01EE58FF4F859194918FB7F894CA
:10033000E881E22BE8838FBF21E0A830B207E1F625
:1003400000E010E0C0E0D1E07880229661E0872DE7
:100350000E947B000E94C8004B015C0188EEC82E01
:1003600083E0D82EE12CF12C0E94C800DC01CB01E7
:1003700088199909AA09BB09883E9340A105B105CE
:1003800098F381E0C81AD108E108F10828EE820E3E
:1003900023E0921EA11CB11CC114D104E104F1049C
:1003A00019F760E0872D0E947B0081E0C830D807F4
:1003B00059F60115110531F20E940000C3CFF894DF
:0203C000FFCF6D
:0803C200080009000A000B000D
:107E0000112484B714BE81FFF0D085E080938100F7
:107E100082E08093C00088E18093C10086E0809377
:107E2000C20080E18093C4008EE0C9D0259A86E02C
:107E300020E33CEF91E0309385002093840096BBD3
:107E4000B09BFECF1D9AA8958150A9F7CC24DD24C4
:107E500088248394B5E0AB2EA1E19A2EF3E0BF2EE7
:107E6000A2D0813461F49FD0082FAFD0023811F036
:107E7000013811F484E001C083E08DD089C08234E0
:107E800011F484E103C0853419F485E0A6D080C0E4
:107E9000853579F488D0E82EFF2485D0082F10E0AE
:107EA000102F00270E291F29000F111F8ED06801E7
:107EB0006FC0863521F484E090D080E0DECF843638
:107EC00009F040C070D06FD0082F6DD080E0C81688
:107ED00080E7D80618F4F601B7BEE895C0E0D1E017
:107EE00062D089930C17E1F7F0E0CF16F0E7DF06D8
:107EF00018F0F601B7BEE89568D007B600FCFDCFD4
:107F0000A601A0E0B1E02C9130E011968C91119780
:107F100090E0982F8827822B932B1296FA010C0160
:107F200087BEE89511244E5F5F4FF1E0A038BF0790
:107F300051F7F601A7BEE89507B600FCFDCF97BE46
:107F4000E89526C08437B1F42ED02DD0F82E2BD052
:107F50003CD0F601EF2C8F010F5F1F4F84911BD097
:107F6000EA94F801C1F70894C11CD11CFA94CF0C13
:107F7000D11C0EC0853739F428D08EE10CD085E9AC
:107F80000AD08FE07ACF813511F488E018D01DD067
:107F900080E101D065CF982F8091C00085FFFCCF94
:107FA0009093C60008958091C00087FFFCCF809118
:107FB000C00084FD01C0A8958091C6000895E0E648
:107FC000F0E098E1908380830895EDDF803219F02E
:107FD00088E0F5DFFFCF84E1DECF1F93182FE3DFCA
:107FE0001150E9F7F2DF1F91089580E0E8DFEE27F6
:047FF000FF270994CA
:027FFE00040479
:0400000300007E007B
:00000001FF
