:100000000C9462000C948A000C948A000C948A0070
:100010000C948A000C948A000C948A000C948A0038
:100020000C948A000C948A000C948A000C948A0028
:100030000C948A000C948A000C948A000C948A0018
:100040000C94F4040C948A000C9464050C943E0502
:100050000C948A000C948A000C948A000C948A00F8
:100060000C948A000C948A000000000024002700F1
:100070002A0000000000250028002B0000000000DE
:1000800023002600290004040404040404040202DA
:100090000202020203030303030301020408102007
:1000A0004080010204081020010204081020000012
:1000B0000008000201000003040700000000000027
:1000C0000000960511241FBECFEFD8E0DEBFCDBFE4
:1000D00011E0A0E0B1E0EEE2FFE002C005900D9279
:1000E000A637B107D9F722E0A6E7B1E001C01D921B
:1000F000A934B207E1F710E0C2E6D0E004C02197CE
:10010000FE010E948A07C136D107C9F70E94D405B3
:100110000C9495070C940000833081F028F4813012
:1001200099F08230A1F008958730A9F08830B9F0B5
:100130008430D1F4809180008F7D03C08091800055
:100140008F7780938000089584B58F7702C084B53F
:100150008F7D84BD08958091B0008F7703C080911A
:10016000B0008F7D8093B0000895CF93DF93282F48
:1001700030E0F901E255FF4F8491F901E656FF4F57
:10018000D491F901EA57FF4FC491CC2391F081112A
:100190000E948C00EC2FF0E0EE0FFF1FE458FF4FA1
:1001A000A591B491EC91ED2381E090E021F480E001
:1001B00002C080E090E0DF91CF9108951F93CF932C
:1001C000DF93282F30E0F901E255FF4F8491F901C8
:1001D000E656FF4FD491F901EA57FF4FC491CC2363
:1001E000C1F0162F81110E948C00EC2FF0E0EE0F71
:1001F000FF1FEE58FF4FA591B4919FB7F8941111CE
:1002000004C08C91D095D82302C0EC91DE2BDC93F6
:100210009FBFDF91CF911F910895CF93DF93C82F98
:10022000D0E080913602D81758F4ED2FF0E0E25E6E
:10023000FD4F6091210287850E94DE00DF5FF1CFD4
:10024000EC2FF0E0E25EFD4F60911F028781DF91AD
:10025000CF910C94DE00CF93DF93C82FD0E0809134
:100260003502D81758F4ED2FF0E0E25EFD4F6091B3
:100270001F0287810E94DE00DF5FF1CFEC2FF0E0EC
:10028000E25EFD4F609121028785DF91CF910C9452
:10029000DE001F93CF93DF93C82FD0E0C25EDD4F07
:1002A00060911E028F810E94DE0010E06A968091AC
:1002B00036021817A8F4E12FF0E0888190E0012EB3
:1002C00002C0959587950A94E2F780FF07C0E25E29
:1002D000FD4F6091200287850E94DE001F5FE7CFFF
:1002E000DF91CF911F9108950F931F93CF93C82F44
:1002F000E82FF0E0E25EFD4F6091200287850E94CA
:10030000DE0001E010E002C0000F111FCA95E2F705
:10031000C0E080913502C81788F4EC2FF0E0E25E6F
:10032000FD4F828D90E080239123892B29F06091ED
:100330001E0287810E94DE00CF5FEBCFCF911F911D
:100340000F910895CF93DF9390E0FC01E656FF4FA5
:100350002491FC01EA57FF4F8491882361F190E0DA
:10036000880F991FFC01E859FF4FC591D491FC01FA
:10037000EE58FF4FA591B491611109C09FB7F89451
:100380008881209582238883EC912E230BC06230D4
:1003900061F49FB7F8948881322F30958323888346
:1003A000EC912E2B2C939FBF06C08FB7F894E88159
:1003B0002E2B28838FBFDF91CF9108958230910536
:1003C00038F0880F991F880F991F05970197F1F74B
:1003D00008953FB7F89480917D0190917E01A0919E
:1003E0007F01B091800126B5A89B05C02F3F19F071
:1003F0000196A11DB11D3FBFBA2FA92F982F8827A5
:10040000820F911DA11DB11DBC01CD0142E0660FFF
:10041000771F881F991F4A95D1F708958F929F9251
:10042000AF92BF92CF92DF92EF92FF926B017C016D
:100430000E94E9014B015C01C114D104E104F10403
:10044000F1F00E94E901DC01CB0188199909AA09A0
:10045000BB09883E9340A105B10570F321E0C21AA3
:10046000D108E108F10888EE880E83E0981EA11CEF
:10047000B11CC114D104E104F10419F7DDCFFF90E0
:10048000EF90DF90CF90BF90AF909F908F900895A6
:10049000CF92DF92EF92FF920F931F93CF93DF9350
:1004A0006C017A018B01C0E0D0E0CE15DF0581F050
:1004B000D8016D918D01D601ED91FC910190F081F3
:1004C000E02DC6010995892B11F02196EECF7E0112
:1004D000C701DF91CF911F910F91FF90EF90DF90B7
:1004E000CF900895089580E090E00895FC01538D29
:1004F000448D252F30E0842F90E0821B930B5417FE
:1005000010F0CF96089501970895FC01918D828D8A
:10051000981761F0828DDF01A80FB11D5D968C9157
:10052000928D9F5F9F73928F90E008958FEF9FEF62
:100530000895FC01918D828D981731F0828DE80F1E
:10054000F11D858D90E008958FEF9FEF0895FC01D8
:10055000918D228D892F90E0805C9F4F821B9109A5
:100560008F739927089581E891E00E94A70221E006
:10057000892B09F420E0822F0895FC01848DDF018E
:10058000A80FB11DA35ABF4F2C91848D90E0019606
:100590008F739927848FA689B7892C93A089B189F5
:1005A0008C91837080648C93938D848D981306C096
:1005B0000288F389E02D80818F7D80830895EF92FA
:1005C000FF920F931F93CF93DF93EC0181E0888F0D
:1005D0009B8D8C8D981305C0E889F989808185FDF4
:1005E00026C0F62E0B8D10E00F5F1F4F0F731127E3
:1005F000E02E8C8DE8120CC00FB607FCFACFE8890C
:10060000F989808185FFF5CFCE010E94BD02F1CF2F
:100610008B8DFE01E80FF11DE35AFF4FF0829FB76B
:10062000F8940B8FEA89FB89808180620AC09FB7AA
:10063000F894EE89FF896083E889F9898081837065
:10064000806480839FBF81E090E0DF91CF911F9114
:100650000F91FF90EF900895CF93DF93EC01888D79
:100660008823C9F0EA89FB89808185FD05C0A889B6
:10067000B9898C9186FD0FC00FB607FCF5CF80813C
:1006800085FFF2CFA889B9898C9185FFEDCFCE0186
:100690000E94BD02E7CFDF91CF91089580E090E006
:1006A000892B29F00E94B30281110C940000089557
:1006B0002F923F924F925F926F927F928F929F9272
:1006C000AF92BF92CF92DF92EF92FF920F931F9360
:1006D000CF93DF93CDB7DEB72A970FB6F894DEBF7E
:1006E0000FBECDBF6C01990FEE08FF086090350278
:1006F000A62CB12CC501880F991F880F991FFC01EA
:10070000EF5CFE4F40815181628173818E010F5FEA
:100710001F4FC416D506E606F706A4F4FC01E35DF8
:10072000FE4F408151816281738181E090E0A0E0C1
:10073000B0E0841B950BA60BB70BC816D906EA06CA
:10074000FB0664F4F80185E29E2F901B961520F0BD
:1007500088E392E0D80158C08193F6CFF7FE0DC030
:1007600085E28983F094E094D094C094C11CD11C9C
:10077000E11CF11C7724739401C0712CC501019711
:100780009A878987761430F5872C912CE985FA852C
:10079000E819F909EE0FFF1FEE0FFF1FEF5CFE4F88
:1007A0002080318042805380C701B601A2019101AF
:1007B0000E942F07F801E80DF91D2083A22FB0E059
:1007C000A20191010E944E07C61AD70AE80AF90A47
:1007D0007394D8CF809124028111BACF91E0A91AE5
:1007E000B10824E2E82FF0E0EA15FB050CF0B0CFE9
:1007F000E00FF11F9081911102C0208303C09A3055
:1008000008F4A6CF8F5FEECF2A2F201B261548F4C1
:10081000ED91F0E0E85FFE4F2081FC012193CF01D4
:10082000F3CF80912302811175C00E94E9014091AC
:100830004802009140021091410220914202309101
:1008400043026B017C01C01AD10AE20AF30A442375
:1008500029F0009146021091470204C00091440221
:1008600010914502012E000C220B330BC016D1064D
:10087000E206F30608F486C06093400270934102DA
:10088000809342029093430290912202911123C0DF
:10089000442319F0109248020EC0809137020E9442
:1008A0002B018091460290914702892B21F081E033
:1008B0008093480267C0809137028F5F8093370230
:1008C00090913602891710F010923702809137020A
:1008D0000E94740157C0442319F0109248020AC0C4
:1008E000809137020E940D0180914602909147024B
:1008F000892BE9F6809137028F5F809337029091C0
:100900003502891710F010923702809137020E9449
:10091000490138C08091220210E081112FC08091DE
:100920003602181778F5812F0E94740180914402D5
:10093000909145020E94DE01812F0E942B0180913F
:10094000460290914702009711F00E94DE011F5F5E
:10095000E6CF812F0E944901809144029091450287
:100960000E94DE01812F0E940D018091460290912C
:100970004702009711F00E94DE011F5F809135024F
:10098000181738F368EE73E080E090E02A960FB60F
:10099000F894DEBF0FBECDBFDF91CF911F910F91B5
:1009A000FF90EF90DF90CF90BF90AF909F908F908F
:1009B0007F906F905F904F903F902F900C940E021D
:1009C000009769F0FC0101900020E9F73197AF0131
:1009D000481B590BBC0181E891E00C94480280E06F
:1009E00090E008950E9490071F920F920FB60F9209
:1009F00011242F933F938F939F93AF93BF93809135
:100A0000790190917A01A0917B01B0917C013091A4
:100A1000780123E0230F2D3720F40196A11DB11D8D
:100A200005C026E8230F0296A11DB11D2093780171
:100A30008093790190937A01A0937B01B0937C011C
:100A400080917D0190917E01A0917F01B091800104
:100A50000196A11DB11D80937D0190937E01A0930D
:100A60007F01B0938001BF91AF919F918F913F9192
:100A70002F910F900FBE0F901F9018951F920F92FD
:100A80000FB60F9211242F933F934F935F936F9361
:100A90007F938F939F93AF93BF93EF93FF9381E8DF
:100AA00091E00E94BD02FF91EF91BF91AF919F91A4
:100AB0008F917F916F915F914F913F912F910F9007
:100AC0000FBE0F901F9018951F920F920FB60F92A6
:100AD00011242F938F939F93EF93FF93E0919101B4
:100AE000F09192018081E0919701F091980182FD4F
:100AF00012C0908180919A018F5F8F7320919B012A
:100B0000821751F0E0919A01F0E0EF57FE4F958F78
:100B100080939A0101C08081FF91EF919F918F9105
:100B20002F910F900FBE0F901F901895E1E8F1E004
:100B30001382128288EE93E0A0E0B0E08483958374
:100B4000A683B7838DE591E09183808385EC90E067
:100B50009587848784EC90E09787868780EC90E087
:100B6000918B808B81EC90E0938B828B82EC90E078
:100B7000958B848B86EC90E0978B868B118E128EF2
:100B8000138E148EEEE1F2E080ED97E097A386A33A
:100B900011A610A612A6178A118E12A213A214A2D1
:100BA00015A2148215820895CF93DF93CDB7DEB7D7
:100BB00029970FB6F894DEBF0FBECDBF789484B5E9
:100BC000826084BD84B5816084BD85B5826085BD49
:100BD00085B5816085BD80916E00816080936E00D7
:100BE00010928100809181008260809381008091C9
:100BF000810081608093810080918000816080937A
:100C000080008091B10084608093B1008091B00039
:100C100081608093B00080917A00846080937A0034
:100C200080917A00826080937A0080917A0081605E
:100C300080937A0080917A00806880937A00109285
:100C4000C10088E0E0E0F1E0DE01119601900D9234
:100C50008A95E1F781E0809322021092230210929C
:100C600024028093350298E09093360210921E027F
:100C70008093200280931F0210922102FE01319680
:100C8000ADE2B2E0CE01099621912D938E179F0718
:100C9000D9F789858093250210E0809135021817D5
:100CA00010F010E013C0812F90E09C01225E3D4FB8
:100CB000790161E0F90187810E94A20160911F0220
:100CC000F70187810E94DE001F5FE7CF8091360227
:100CD000181798F4812F90E09C01225E3D4F790116
:100CE00061E0F90187850E94A20160912102F7016C
:100CF00087850E94DE001F5FE9CF90913502E8E30F
:100D0000F2E080E0981719F011928F5FFBCF80E03E
:100D10000E942B0180E00E940D0188E097E09093F3
:100D200045028093440210924702109246021092AC
:100D3000480260E082E00E94A20160E083E00E943D
:100D4000A201E0919101F091920182E08083E09113
:100D50008D01F0918E011082E0918F01F091900150
:100D60008FEC808310929901E0919501F0919601AA
:100D700086E08083E0919301F0919401808180610D
:100D80008083E0919301F091940180818860808359
:100D9000E0919301F0919401808180688083E091DB
:100DA0009301F091940180818F7D808383E00E9484
:100DB000B5008C0182E00E94B500892B41F5011538
:100DC000110591F480E090E00E945803F8CF009163
:100DD000760110917701C8010E9458030F5F1F4FE1
:100DE00010937701009376018BE691E00E94E00476
:100DF0008EE691E00E94E004809176019091770167
:100E00000A9729F71092770110927601E0CF012B13
:100E100059F081E791E00E94E00464E670E080E030
:100E200090E00E940E02F5CF89E0E82EF12C80912F
:100E3000760190917701019621F4F0927701E0928A
:100E400076010091760110917701C8010E94580344
:100E5000015011091093770100937601E8CF052E18
:100E600097FB1EF400940E94460757FD07D00E948E
:100E7000590707FC03D04EF40C9446075095409553
:100E8000309521953F4F4F4F5F4F08959095809536
:100E9000709561957F4F8F4F9F4F08950E947B07FC
:100EA000A59F900DB49F900DA49F800D911D1124BE
:100EB0000895A1E21A2EAA1BBB1BFD010DC0AA1F9B
:100EC000BB1FEE1FFF1FA217B307E407F50720F0B3
:100ED000A21BB30BE40BF50B661F771F881F991F2E
:100EE0001A9469F760957095809590959B01AC0177
:100EF000BD01CF010895A29FB001B39FC001A39F80
:100F0000700D811D1124911DB29F700D811D112442
:100F1000911D0895EE0FFF1F0590F491E02D0994A7
:0E0F200081E090E0F8940C949507F894FFCFD0
:100F2E000B0A0908070605043F065B4F666D7D0731
:100F3E007F6F777C395E79713D76300E763800544E
:100F4E003F7367506D783E3E00766E5B0040806367
:100F5E0008010000000A00000064000000E8030021
:100F6E000010270000A086010040420F00809698D6
:100F7E000000E1F50500CA9A3B00000000DF0248C0
:100F8E000276022C03A702850299026973000D0AEC
:060F9E000053746F7000A7
:00000001FF
