:100000000C945D000C9485000C9485000C94850084
:100010000C9485000C9485000C9485000C9485004C
:100020000C9485000C9485000C9485000C9485003C
:100030000C9485000C9485000C9485000C9485002C
:100040000C94A1030C9485000C9411040C94EB0304
:100050000C9485000C9485000C9485000C9485000C
:100060000C9485000C9485000000000024002700FB
:100070002A0000000000250028002B0004040404CE
:100080000404040402020202020203030303030342
:10009000010204081020408001020408102001021F
:1000A00004081020000000080002010000030407FB
:1000B0000000000000000000430411241FBECFEF29
:1000C000D8E0DEBFCDBF11E0A0E0B1E0E0E8FEE0A7
:1000D00002C005900D92A033B107D9F721E0A0E34B
:1000E000B1E001C01D92AE3EB207E1F710E0CDE5F0
:1000F000D0E004C02197FE010E943307CC35D10720
:10010000C9F70E948D040C943E070C94000090E007
:10011000FC01EC55FF4F2491FC01E057FF4F349157
:10012000FC01E458FF4FE491EE2309F43CC0222384
:1001300039F1233091F038F42130A9F0223001F563
:1001400084B58F7D12C0273091F02830A1F0243083
:10015000B9F4809180008F7D03C0809180008F77FB
:10016000809380000DC084B58F7784BD09C08091D5
:10017000B0008F7703C08091B0008F7D8093B00076
:10018000F0E0EE0FFF1FEE58FF4FA591B4919FB71F
:10019000F894611104C08C913095382302C0EC9121
:1001A0003E2B3C939FBF0895CF93DF9390E0FC01DB
:1001B000E057FF4F2491FC01E458FF4F84918823BE
:1001C00061F190E0880F991FFC01E859FF4FC5913C
:1001D000D491FC01EE58FF4FA591B491611109C073
:1001E0009FB7F8948881209582238883EC912E23F1
:1001F0000BC0623061F49FB7F8948881322F30953C
:1002000083238883EC912E2B2C939FBF06C08FB73E
:10021000F894E8812E2B28838FBFDF91CF9108952A
:100220003FB7F8948091350190913601A091370144
:10023000B091380126B5A89B05C02F3F19F0019653
:10024000A11DB11D3FBFBA2FA92F982F8827820F5C
:10025000911DA11DB11DBC01CD0142E0660F771FAC
:10026000881F991F4A95D1F70895CF92DF92EF9298
:10027000FF920F931F93CF93DF936C017A018B0151
:10028000C0E0D0E0CE15DF0581F0D8016D918D0181
:10029000D601ED91FC910190F081E02DC601099508
:1002A000892B11F02196EECF7E01C701DF91CF910E
:1002B0001F910F91FF90EF90DF90CF900895FC0178
:1002C000538D448D252F30E0842F90E0821B930BBB
:1002D000541710F0CF96089501970895FC01918D61
:1002E000828D981761F0828DDF01A80FB11D5D9698
:1002F0008C91928D9F5F9F73928F90E008958FEF06
:100300009FEF0895FC01918D828D981731F0828DB9
:10031000E80FF11D858D90E008958FEF9FEF089510
:10032000FC01918D228D892F90E0805C9F4F821B74
:1003300091098F739927089589E391E00E949001B4
:1003400021E0892B09F420E0822F0895FC01848D9F
:10035000DF01A80FB11DA35ABF4F2C91848D90E0EF
:1003600001968F739927848FA689B7892C93A089CA
:10037000B1898C91837080648C93938D848D981354
:1003800006C00288F389E02D80818F7D80830895E7
:10039000EF92FF920F931F93CF93DF93EC0181E0D5
:1003A000888F9B8D8C8D981305C0E889F989808191
:1003B00085FD26C0F62E0B8D10E00F5F1F4F0F73CB
:1003C0001127E02E8C8DE8120CC00FB607FCFACF77
:1003D000E889F989808185FFF5CFCE010E94A601C9
:1003E000F1CF8B8DFE01E80FF11DE35AFF4FF08234
:1003F0009FB7F8940B8FEA89FB89808180620AC0DD
:100400009FB7F894EE89FF896083E889F989808134
:100410008370806480839FBF81E090E0DF91CF9103
:100420001F910F91FF90EF900895CF93DF93EC0110
:10043000888D8823C9F0EA89FB89808185FD05C004
:10044000A889B9898C9186FD0FC00FB607FCF5CF3E
:10045000808185FFF2CFA889B9898C9185FFEDCF86
:10046000CE010E94A601E7CFDF91CF91089580E0F1
:1004700090E0892B29F00E949C0181110C940000CE
:100480000895CF93DF93EC0160E08E810E94870096
:1004900061E08E810E94870060E08E810E9487006B
:1004A0008BE891E00197F1F7DF91CF910895CF921A
:1004B000DF92EF92FF920F931F93CF93DF936C0124
:1004C0007C0187E0E80EF11CC0E0D0E0062F10E0D0
:1004D000B8010C2E02C0759567950A94E2F7617019
:1004E000F70181917F010E9487002196C430D105D8
:1004F00079F7C601DF91CF911F910F91FF90EF9097
:10050000DF90CF900C944102CF92DF92EF92FF9256
:100510000F931F93CF93DF93EC01F62E642F8C8102
:100520000E9487008D818F3F19F060E00E94870054
:100530008F850F2D10E084FF25C06E0187E0C80E67
:10054000D11CE12CF12CB8010E2C02C075956795D9
:100550000A94E2F76170F60181916F010E948700B1
:10056000FFEFEF1AFF0A88E0E816F10461F7CE0109
:10057000DF91CF911F910F91FF90EF90DF90CF907F
:100580000C944102B80184E0759567958A95E1F76E
:10059000CE010E9457026F2DCE01DF91CF911F91A6
:1005A0000F91FF90EF90DF90CF900C94570240E0B6
:1005B000682F86ED91E00C948402CF93DF93823014
:1005C00028F09091E50198609093E5018093E9010E
:1005D0001092EA0180E48093EB0180E18093EC01CA
:1005E00080E58093ED0161E08091DA010E94D40002
:1005F0008091DB018F3F19F061E00E94D40061E03F
:100600008091DC010E94D400C6EDD1E09E01265D00
:1006100031408091E50184FD03C084E090E002C098
:1006200088E090E02196281739072CF461E08E814C
:100630000E94D400EBCF8BE39DE00197F1F760E0DF
:100640008091DA010E94870060E08091DC010E94C5
:1006500087008091DB018F3F19F060E00E948700E6
:100660008091E50184FD20C063E086ED91E00E9469
:100670005702CBE4D6E4CE010197F1F763E086EDB3
:1006800091E00E9457022197F1F763E086ED91E037
:100690000E94570283E592E00197F1F762E086ED50
:1006A00091E00E94570215C080620E94D7028BE43D
:1006B00096E40197F1F78091E50180620E94D702EC
:1006C00083E592E00197F1F78091E50180620E9455
:1006D000D7028091E50180620E94D70284E0809376
:1006E000E6018CE00E94D70281E00E94D7028BE3F2
:1006F0009FE10197F1F782E08093E70186E0DF91C7
:10070000CF910C94D70241E00E94840281E090E0F6
:100710000895089580E090E00895009769F0FC0145
:1007200001900020E9F73197AF01481B590BBC013C
:1007300086ED91E00C94350180E090E008950E94F0
:1007400039071F920F920FB60F9211242F933F93E8
:100750008F939F93AF93BF9380913101909132011A
:10076000A0913301B09134013091300123E0230F87
:100770002D3720F40196A11DB11D05C026E8230FD9
:100780000296A11DB11D20933001809331019093F9
:100790003201A0933301B0933401809135019091DF
:1007A0003601A0913701B09138010196A11DB11D0C
:1007B0008093350190933601A0933701B0933801AF
:1007C000BF91AF919F918F913F912F910F900FBE4D
:1007D0000F901F9018951F920F920FB60F92112431
:1007E0002F933F934F935F936F937F938F939F9339
:1007F000AF93BF93EF93FF9389E391E00E94A6012B
:10080000FF91EF91BF91AF919F918F917F916F91E8
:100810005F914F913F912F910F900FBE0F901F90BE
:1008200018951F920F920FB60F9211242F938F934A
:100830009F93EF93FF93E0914901F0914A018081EA
:10084000E0914F01F091500182FD12C090818091A2
:1008500052018F5F8F7320915301821751F0E09105
:100860005201F0E0E75CFE4F958F8093520101C08A
:100870008081FF91EF919F918F912F910F900FBEEB
:100880000F901F901895E9E3F1E01382128288EE31
:1008900093E0A0E0B0E084839583A683B78384E0EF
:1008A00091E09183808385EC90E09587848784EC48
:1008B00090E09787868780EC90E0918B808B81EC2D
:1008C00090E0938B828B82EC90E0958B848B86EC0E
:1008D00090E0978B868B118E128E138E148EE6ED20
:1008E000F1E01382128286E191E09183808387E0B8
:1008F00084838FEF858388E0868389E087838AE01D
:1009000080878BE081878CE082871386148615862A
:100910001686178681E00C94DD02CF93DF93CDB766
:10092000DEB7A1970FB6F894DEBF0FBECDBF7894A7
:1009300084B5826084BD84B5816084BD85B58260E4
:1009400085BD85B5816085BD80916E008160809395
:100950006E001092810080918100826080938100FE
:10096000809181008160809381008091800081600E
:10097000809380008091B10084608093B100809169
:10098000B00081608093B00080917A008460809391
:100990007A0080917A00826080937A0080917A0058
:1009A000816080937A0080917A00806880937A00D9
:1009B0001092C10082E00E94DD0261E083E00E94AB
:1009C000D40060E081E10E94D400E0914901F091FF
:1009D0004A0182E08083E0914501F0914601108256
:1009E000E0914701F09148018FEC80831092510112
:1009F000E0914D01F0914E0186E08083E0914B0142
:100A0000F0914C01808180618083E0914B01F091F5
:100A10004C01808188608083E0914B01F0914C0112
:100A2000808180688083E0914B01F0914C0180814E
:100A30008F7D80839AE0492E512C612C712C2BE301
:100A4000222E2FE1322E23E420937C0080917A0025
:100A5000806480937A0080917A0086FDFCCF60915B
:100A600078008091790070E0782B072E000C880BBD
:100A7000990B0E9418062FE832EC4FEE5EE30E94BD
:100A80007C060E94E0056B017C018B01E1E0809116
:100A9000E9018111E0E0E195F0E0EA52FE4F84893E
:100AA00080680E94D7028EE191E00E948D03E09160
:100AB000E901E23010F4E15001C0E1E0F0E0EA5277
:100AC000FE4F848980680E94D7020D2C000CEE082E
:100AD000FF08F7FE21C041E06DE286ED91E00E9443
:100AE000840222273327A9012C193D094E095F09E9
:100AF00019A2CE0181967C01CA01B901A30192011C
:100B00000E941107605DF70162937F012115310595
:100B10004105510589F715C0A701960119A2CE011B
:100B200081967C01CA01B901A30192010E941107BB
:100B3000605DF70162937F01211531054105510583
:100B400089F7C7010E948D038DE291E00E948D0319
:100B50000E9410014B015C018AEFC82ED12CE12CC0
:100B6000F12C0E941001DC01CB0188199909AA0916
:100B7000BB09883E9340A105B10598F3F1E0CF1A77
:100B8000D108E108F10828EE820E23E0921EA11C94
:100B9000B11CC114D104E104F10419F781E00E94F1
:100BA000D702C1010197F1F70932110514F061E094
:100BB00001C060E083E00E9487000E94370243CFBB
:100BC0000E94E7056894B1110C94760608950E947E
:100BD0005B0688F09F5798F0B92F9927B751B0F06E
:100BE000E1F0660F771F881F991F1AF0BA95C9F7B1
:100BF00014C0B13091F00E947506B1E008950C94D4
:100C00007506672F782F8827B85F39F0B93FCCF386
:100C1000869577956795B395D9F73EF4909580952D
:100C2000709561957F4F8F4F9F4F0895E89409C04D
:100C300097FB3EF490958095709561957F4F8F4F0F
:100C40009F4F9923A9F0F92F96E9BB279395F69525
:100C5000879577956795B795F111F8CFFAF4BB0FA3
:100C600011F460FF1BC06F5F7F4F8F4F9F4F16C007
:100C7000882311F096E911C0772321F09EE8872F91
:100C8000762F05C0662371F096E8862F70E060E04D
:100C90002AF09A95660F771F881FDAF7880F9695C6
:100CA000879597F9089557FD9058440F551F59F0AF
:100CB0005F3F71F04795880F97FB991F61F09F3F49
:100CC00079F087950895121613061406551FF2CF72
:100CD0004695F1DF08C0161617061806991FF1CFC2
:100CE00086957105610508940895E894BB276627E9
:100CF0007727CB0197F908950E948F060C9400077F
:100D00000E94F20638F00E94F90620F0952311F0B7
:100D10000C94E9060C94EF0611240C9476060E94BC
:100D2000530670F3959FC1F3950F50E0551F629FD6
:100D3000F001729FBB27F00DB11D639FAA27F00D34
:100D4000B11DAA1F649F6627B00DA11D661F829F5B
:100D50002227B00DA11D621F739FB00DA11D621F40
:100D6000839FA00D611D221F749F3327A00D611D5D
:100D7000231F849F600D211D822F762F6A2F11243F
:100D80009F5750409AF0F1F088234AF0EE0FFF1F72
:100D9000BB1F661F771F881F91505040A9F79E3FC9
:100DA000510580F00C94E9060C9476065F3FE4F35D
:100DB000983ED4F3869577956795B795F795E7951F
:100DC0009F5FC1F7FE2B880F911D9695879597F928
:100DD000089597F99F6780E870E060E008959FEFBD
:100DE00080EC089500240A941616170618060906C2
:100DF000089500240A941216130614060506089591
:100E0000092E0394000C11F4882352F0BB0F40F418
:100E1000BF2B11F460FF04C06F5F7F4F8F4F9F4F58
:100E20000895A1E21A2EAA1BBB1BFD010DC0AA1F2B
:100E3000BB1FEE1FFF1FA217B307E407F50720F043
:100E4000A21BB30BE40BF50B661F771F881F991FBE
:100E50001A9469F760957095809590959B01AC0107
:100E6000BD01CF010895EE0FFF1F0590F491E02D15
:100E7000099481E090E0F8940C943E07F894FFCF39
:100E800000000000C80135015F01150290016E01EC
:100E9000820100000000830335018A038903537532
:100EA00068752053656B6172616E673A002043007C
:00000001FF
