:100000000C9462000C948A000C948A000C948A0070
:100010000C948A000C948A000C948A000C948A0038
:100020000C948A000C948A000C948A000C948A0028
:100030000C948A000C948A000C948A000C948A0018
:100040000C94A6030C948A000C9416040C94F003F0
:100050000C948A000C948A000C948A000C948A00F8
:100060000C948A000C948A000000000023002600F3
:10007000290000000000240027002A0000000000E2
:10008000250028002B0004040404040404040202D4
:100090000202020203030303030301020408102007
:1000A0004080010204081020010204081020000012
:1000B0000008000201000003040700000000000027
:1000C00000008D0411241FBECFEFD8E0DEBFCDBFEE
:1000D00011E0A0E0B1E0E0E7FFE002C005900D9282
:1000E000AA32B107D9F721E0AAE2B1E001C01D921E
:1000F000A83EB207E1F710E0C2E6D0E004C02197C5
:10010000FE010E94AB07C136D107C9F70E94D70490
:100110000C94B6070C94000090E0FC01E255FF4FF0
:100120002491FC01E656FF4F3491FC01EA57FF4F42
:10013000E491EE2309F43CC0222339F1233091F0FD
:1001400038F42130A9F0223001F584B58F7D12C03A
:10015000273091F02830A1F02430B9F4809180004C
:100160008F7D03C0809180008F77809380000DC0C9
:1001700084B58F7784BD09C08091B0008F7703C0AC
:100180008091B0008F7D8093B000F0E0EE0FFF1FF4
:10019000E458FF4FA591B4919FB7F894611104C042
:1001A0008C913095382302C0EC913E2B3C939FBF3D
:1001B0000895CF93DF9390E0FC01E656FF4F249122
:1001C000FC01EA57FF4F8491882361F190E0880F8A
:1001D000991FFC01EE58FF4FC591D491FC01E458E2
:1001E000FF4FA591B491611109C09FB7F894888120
:1001F000209582238883EC912E230BC0623061F41A
:100200009FB7F8948881322F309583238883EC91AF
:100210002E2B2C939FBF06C08FB7F894E8812E2B0E
:1002200028838FBFDF91CF9108953FB7F8948091D5
:100230002F0190913001A0913101B091320126B58A
:10024000A89B05C02F3F19F00196A11DB11D3FBF0E
:10025000BA2FA92F982F8827820F911DA11DB11D9C
:10026000BC01CD0142E0660F771F881F991F4A9598
:10027000D1F70895CF92DF92EF92FF920F931F93E1
:10028000CF93DF936C017A018B01C0E0D0E0CE15F3
:10029000DF0581F0D8016D918D01D601ED91FC91C2
:1002A0000190F081E02DC6010995892B11F021966E
:1002B000EECF7E01C701DF91CF911F910F91FF908B
:1002C000EF90DF90CF900895FC01538D448D252F42
:1002D00030E0842F90E0821B930B541710F0CF96E0
:1002E000089501970895FC01918D828D981761F012
:1002F000828DDF01A80FB11D5D968C91928D9F5F5D
:100300009F73928F90E008958FEF9FEF0895FC0107
:10031000918D828D981731F0828DE80FF11D858DBA
:1003200090E008958FEF9FEF0895FC01918D228D4D
:10033000892F90E0805C9F4F821B91098F739927D2
:10034000089583E391E00E94950121E0892B09F44F
:1003500020E0822F0895FC01848DDF01A80FB11DDC
:10036000A35ABF4F2C91848D90E001968F739927EB
:10037000848FA689B7892C93A089B1898C918370C9
:1003800080648C93938D848D981306C00288F389C2
:10039000E02D80818F7D80830895EF92FF920F93EF
:1003A0001F93CF93DF93EC0181E0888F9B8D8C8D21
:1003B000981305C0E889F989808185FD26C0F62E4D
:1003C0000B8D10E00F5F1F4F0F731127E02E8C8DE8
:1003D000E8120CC00FB607FCFACFE889F9898081D2
:1003E00085FFF5CFCE010E94AB01F1CF8B8DFE01D1
:1003F000E80FF11DE35AFF4FF0829FB7F8940B8F7F
:10040000EA89FB89808180620AC09FB7F894EE89EF
:10041000FF896083E889F9898081837080648083A3
:100420009FBF81E090E0DF91CF911F910F91FF90EE
:10043000EF900895CF93DF93EC01888D8823C9F066
:10044000EA89FB89808185FD05C0A889B9898C91DD
:1004500086FD0FC00FB607FCF5CF808185FFF2CF78
:10046000A889B9898C9185FFEDCFCE010E94AB019F
:10047000E7CFDF91CF91089580E090E0892B29F0BC
:100480000E94A10181110C9400000895CF93DF9385
:10049000EC0160E08E810E948C0061E08E810E9400
:1004A0008C0060E08E810E948C008BE891E00197C7
:1004B000F1F7DF91CF910895CF92DF92EF92FF9203
:1004C0000F931F93CF93DF936C017C0187E0E80EBD
:1004D000F11CC0E0D0E0062F10E0B8010C2E02C0E5
:1004E000759567950A94E2F76170F70181917F0134
:1004F0000E948C002196C430D10579F7C601DF91A6
:10050000CF911F910F91FF90EF90DF90CF900C94BF
:100510004602CF92DF92EF92FF920F931F93CF93F9
:10052000DF93EC01F62E642F8C810E948C008D816C
:100530008F3F19F060E00E948C008F850F2D10E036
:1005400084FF25C06E0187E0C80ED11CE12CF12C80
:10055000B8010E2C02C0759567950A94E2F7617098
:10056000F60181916F010E948C00FFEFEF1AFF0AE4
:1005700088E0E816F10461F7CE01DF91CF911F9179
:100580000F91FF90EF90DF90CF900C944602B8014E
:1005900084E0759567958A95E1F7CE010E945C022B
:1005A0006F2DCE01DF91CF911F910F91FF90EF90B2
:1005B000DF90CF900C945C0240E0682F80ED91E0DA
:1005C0000C948902CF93DF93823028F09091DF0161
:1005D00098609093DF018093E3011092E40180E43E
:1005E0008093E50180E18093E60180E58093E70157
:1005F00061E08091D4010E94D9008091D5018F3FA4
:1006000019F061E00E94D90061E08091D6010E945A
:10061000D900C0EDD1E09E01205D31408091DF0125
:1006200084FD03C084E090E002C088E090E0219661
:10063000281739072CF461E08E810E94D900EBCF96
:100640008BE39DE00197F1F760E08091D4010E9477
:100650008C0060E08091D6010E948C008091D501D1
:100660008F3F19F060E00E948C008091DF0184FDD3
:1006700020C063E080ED91E00E945C02CBE4D6E410
:10068000CE010197F1F763E080ED91E00E945C02FA
:100690002197F1F763E080ED91E00E945C0283E531
:1006A00092E00197F1F762E080ED91E00E945C0238
:1006B00015C080620E94DC028BE496E40197F1F79A
:1006C0008091DF0180620E94DC0283E592E0019765
:1006D000F1F78091DF0180620E94DC028091DF01EE
:1006E00080620E94DC0284E08093E0018CE00E9442
:1006F000DC0281E00E94DC028BE39FE10197F1F7CD
:1007000082E08093E10186E0DF91CF910C94DC02DE
:1007100041E00E94890281E090E00895089580E020
:1007200090E00895009769F0FC0101900020E9F73E
:100730003197AF01481B590BBC0180ED91E00C943F
:100740003A0180E090E008950E94B1071F920F9255
:100750000FB60F9211242F933F938F939F93AF93D4
:10076000BF9380912B0190912C01A0912D01B0910C
:100770002E0130912A0123E0230F2D3720F401961A
:10078000A11DB11D05C026E8230F0296A11DB11DB4
:1007900020932A0180932B0190932C01A0932D018B
:1007A000B0932E0180912F0190913001A0913101E1
:1007B000B09132010196A11DB11D80932F0190933C
:1007C0003001A0933101B0933201BF91AF919F915D
:1007D0008F913F912F910F900FBE0F901F90189502
:1007E0001F920F920FB60F9211242F933F934F93A6
:1007F0005F936F937F938F939F93AF93BF93EF9389
:10080000FF9383E391E00E94AB01FF91EF91BF91D1
:10081000AF919F918F917F916F915F914F913F9198
:100820002F910F900FBE0F901F9018951F920F924F
:100830000FB60F9211242F938F939F93EF93FF93F3
:10084000E0914301F09144018081E0914901F091F0
:100850004A0182FD12C0908180914C018F5F8F739D
:1008600020914D01821751F0E0914C01F0E0ED5CD8
:10087000FE4F958F80934C0101C08081FF91EF91D5
:100880009F918F912F910F900FBE0F901F901895F1
:10089000CF92DF92EF92FF920F931F93E82FF92FE1
:1008A00005C0015011092109310961F19081962398
:1008B0009417B9F305C0015011092109310911F14B
:1008C000908196239413F7CFC12CD12CE12CF12CDD
:1008D0000AC08FEFC81AD80AE80AF80A0C151D05D5
:1008E0002E053F0579F080818623841791F36C2DC6
:1008F0007D2D8E2D9F2D1F910F91FF90EF90DF90FA
:10090000CF90089560E070E080E090E01F910F913B
:10091000FF90EF90DF90CF900895E3E3F1E0138232
:10092000128288EE93E0A0E0B0E084839583A683F2
:10093000B78384E091E09183808385EC90E0958794
:10094000848784EC90E09787868780EC90E0918B99
:10095000808B81EC90E0938B828B82EC90E0958B86
:10096000848B86EC90E0978B868B118E128E138E83
:10097000148EE0EDF1E01382128286E191E0918322
:10098000808387E084838FEF858388E0868389E096
:1009900087838AE080878BE081878CE0828713865B
:1009A000148615861686178681E00C94E202CF9392
:1009B000DF93CDB7DEB7A1970FB6F894DEBF0FBEB9
:1009C000CDBF789484B5826084BD84B5816084BDD8
:1009D00085B5826085BD85B5816085BD80916E00DD
:1009E000816080936E00109281008091810082600E
:1009F000809381008091810081608093810080914B
:100A000080008160809380008091B1008460809339
:100A1000B1008091B00081608093B00080917A0035
:100A2000846080937A0080917A00826080937A005B
:100A300080917A00816080937A0080917A0080684A
:100A400080937A001092C10082E00E94E20261E08D
:100A500083E00E94D90061E086E00E94D90060E056
:100A600085E00E94D900E0914301F091440182E0C9
:100A70008083E0913F01F09140011082E0914101BB
:100A8000F09142018FEC808310924B01E09147017D
:100A9000F091480186E08083E0914501F0914601A4
:100AA000808180618083E0914501F09146018081E1
:100AB00088608083E0914501F091460180818068E3
:100AC0008083E0914501F091460180818F7D808394
:100AD0002AE0422E512C612C712C3BE3232E3FE166
:100AE000332E60E086E00E948C0083E090E0019766
:100AF000F1F761E086E00E948C0083E290E00197CC
:100B0000F1F760E086E00E948C00EFE9F0E064918C
:100B1000EBE8F0E08491E82FF0E0EE0FFF1FE859DA
:100B2000FF4F8591949100E412E42FE030E0462FCE
:100B30000E944804611571058105910549F0DC01A9
:100B4000CB010196A11DB11DBC01CD019F7003C059
:100B500060E070E0CB010E94900626E933E44BE0B0
:100B60005DE30E94F40620E030E040E05FE30E9495
:100B7000F4060E9458066B017C018B01E1E0809134
:100B8000E3018111E0E0E195F0E0E053FE4F84895C
:100B900080680E94DC028EE191E00E949203E09165
:100BA000E301E23010F4E15001C0E1E0F0E0E05395
:100BB000FE4F848980680E94DC020D2C000CEE0838
:100BC000FF08F7FE21C041E06DE280ED91E00E9458
:100BD000890222273327A9012C193D094E095F09F3
:100BE00019A2CE0181967C01CA01B901A30192012B
:100BF0000E948907605DF70162937F01211531052D
:100C00004105510589F715C0A701960119A2CE012A
:100C100081967C01CA01B901A30192010E94890752
:100C2000605DF70162937F01211531054105510592
:100C300089F7C7010E94920385E291E00E94920326
:100C40000E9415014B015C018AEFC82ED12CE12CCA
:100C5000F12C0E941501DC01CB0188199909AA0920
:100C6000BB09883E9340A105B10598F3F1E0CF1A86
:100C7000D108E108F10828EE820E23E0921EA11CA3
:100C8000B11CC114D104E104F10419F781E00E9400
:100C9000DC02C1010197F1F70E31110514F461E096
:100CA00001C060E083E00E948C000E943C0219CFEA
:100CB0000E945F066894B1110C94EE0608950E949C
:100CC000D30688F09F5798F0B92F9927B751B0F005
:100CD000E1F0660F771F881F991F1AF0BA95C9F7C0
:100CE00014C0B13091F00E94ED06B1E008950C946B
:100CF000ED06672F782F8827B85F39F0B93FCCF31E
:100D0000869577956795B395D9F73EF4909580953C
:100D1000709561957F4F8F4F9F4F0895E89409C05C
:100D200097FB3EF490958095709561957F4F8F4F1E
:100D30009F4F9923A9F0F92F96E9BB279395F69534
:100D4000879577956795B795F111F8CFFAF4BB0FB2
:100D500011F460FF1BC06F5F7F4F8F4F9F4F16C016
:100D6000882311F096E911C0772321F09EE8872FA0
:100D7000762F05C0662371F096E8862F70E060E05C
:100D80002AF09A95660F771F881FDAF7880F9695D5
:100D9000879597F9089557FD9058440F551F59F0BE
:100DA0005F3F71F04795880F97FB991F61F09F3F58
:100DB00079F087950895121613061406551FF2CF81
:100DC0004695F1DF08C0161617061806991FF1CFD1
:100DD00086957105610508940895E894BB276627F8
:100DE0007727CB0197F908950E9407070C9478079D
:100DF0000E946A0738F00E94710720F0952311F0D5
:100E00000C9461070C94670711240C94EE060E9461
:100E1000CB0670F3959FC1F3950F50E0551F629F6D
:100E2000F001729FBB27F00DB11D639FAA27F00D43
:100E3000B11DAA1F649F6627B00DA11D661F829F6A
:100E40002227B00DA11D621F739FB00DA11D621F4F
:100E5000839FA00D611D221F749F3327A00D611D6C
:100E6000231F849F600D211D822F762F6A2F11244E
:100E70009F5750409AF0F1F088234AF0EE0FFF1F81
:100E8000BB1F661F771F881F91505040A9F79E3FD8
:100E9000510580F00C9461070C94EE065F3FE4F37B
:100EA000983ED4F3869577956795B795F795E7952E
:100EB0009F5FC1F7FE2B880F911D9695879597F937
:100EC000089597F99F6780E870E060E008959FEFCC
:100ED00080EC089500240A941616170618060906D1
:100EE000089500240A9412161306140605060895A0
:100EF000092E0394000C11F4882352F0BB0F40F428
:100F0000BF2B11F460FF04C06F5F7F4F8F4F9F4F67
:100F10000895A1E21A2EAA1BBB1BFD010DC0AA1F3A
:100F2000BB1FEE1FFF1FA217B307E407F50720F052
:100F3000A21BB30BE40BF50B661F771F881F991FCD
:100F40001A9469F760957095809590959B01AC0116
:100F5000BD01CF010895EE0FFF1F0590F491E02D24
:100F6000099481E090E0F8940C94B607F894FFCFD0
:100F700000000000CD013A0164011A0295017301DD
:100F800087010000000088033A018F038E034A6145
:0A0F900072616B3A0020636D0000EF
:00000001FF
