:100000000C945C000C9479000C9479000C947900A9
:100010000C9479000C9479000C9479000C9479007C
:100020000C9479000C9479000C9479000C9479006C
:100030000C9479000C9479000C9479000C9479005C
:100040000C9423010C9479000C9479000C947900A1
:100050000C9479000C9479000C9479000C9479003C
:100060000C9479000C947900000000002400270013
:100070002A0000000000250028002B0004040404CE
:100080000404040402020202020203030303030342
:10009000010204081020408001020408102001021F
:1000A00004081020000000080002010000030407FB
:1000B000000000000000000011241FBECFEFD8E0B8
:1000C000DEBFCDBF11E0A0E0B1E0ECEFF3E002C095
:1000D00005900D92A230B107D9F721E0A2E0B1E07E
:1000E00001C01D92AB30B207E1F70E946D010C9484
:1000F000FC010C940000ECEAF0E09491E8E9F0E0F7
:100100002491E4E8F0E0E491EE2309F43CC0992363
:1001100039F1933091F038F49130A9F0923001F533
:1001200094B59F7D12C0973091F09830A1F0943033
:10013000B9F4909180009F7D03C0909180009F77DB
:10014000909380000DC094B59F7794BD09C09091A5
:10015000B0009F7703C09091B0009F7D9093B00056
:10016000F0E0EE0FFF1FEE58FF4FA591B4919FB73F
:10017000F894811104C08C912095282302C0EC9141
:100180002E2B2C939FBF08953FB7F89480910701C1
:1001900090910801A0910901B0910A0126B5A89B90
:1001A00005C02F3F19F00196A11DB11D3FBFBA2F09
:1001B000A92F982F8827820F911DA11DB11DBC0169
:1001C000CD0142E0660F771F881F991F4A95D1F72E
:1001D00008958F929F92AF92BF92CF92DF92EF924B
:1001E000FF926B017C010E94C4004B015C01C114B1
:1001F000D104E104F104F1F00E94C400DC01CB0160
:1002000088199909AA09BB09883E9340A105B1053F
:1002100070F321E0C21AD108E108F10888EE880ED7
:1002200083E0981EA11CB11CC114D104E104F104A7
:1002300019F7DDCFFF90EF90DF90CF90BF90AF9098
:100240009F908F9008951F920F920FB60F921124D6
:100250002F933F938F939F93AF93BF93809103010D
:1002600090910401A0910501B09106013091020125
:1002700023E0230F2D3720F40196A11DB11D05C0E9
:1002800026E8230F0296A11DB11D20930201809341
:10029000030190930401A0930501B093060180919E
:1002A000070190910801A0910901B0910A010196FE
:1002B000A11DB11D8093070190930801A09309012E
:1002C000B0930A01BF91AF919F918F913F912F9170
:1002D0000F900FBE0F901F901895789484B5826090
:1002E00084BD84B5816084BD85B5826085BD85B5DA
:1002F000816085BD80916E00816080936E00109258
:1003000081008091810082608093810080918100D2
:100310008160809381008091800081608093800063
:100320008091B10084608093B1008091B0008160C1
:100330008093B00080917A00846080937A008091ED
:100340007A00826080937A0080917A008160809345
:100350007A0080917A00806880937A001092C100C0
:10036000E8E9F0E02491E4E8F0E08491882399F052
:1003700090E0880F991FFC01E859FF4FA591B491B7
:10038000FC01EE58FF4F859194918FB7F894EC9152
:10039000E22BEC938FBFC0E0D0E008EB1BE0809134
:1003A00000019091010184569109181619062CF448
:1003B000909301018093000104C010930101009308
:1003C000000181E00E947B00C0900001D0900101FB
:1003D0000D2C000CEE08FF08C701B6010E94E900D1
:1003E00080E00E947B00C701B6010E94E9002097CF
:0C03F000B1F20E940000D3CFF894FFCFC0
:0203FC00E80314
:00000001FF
