:100000000C9462000C948A000C948A000C948A0070
:100010000C948A000C948A000C948A000C948A0038
:100020000C948A000C948A000C948A000C948A0028
:100030000C948A000C948A000C948A000C948A0018
:100040000C94B3030C948A000C948A000C948A00DC
:100050000C948A000C948A000C948A000C948A00F8
:100060000C948A000C948A000000000024002700F1
:100070002A0000000000250028002B0000000000DE
:1000800023002600290004040404040404040202DA
:100090000202020203030303030301020408102007
:1000A0004080010204081020010204081020000012
:1000B0000008000201000003040700000000000027
:1000C0000000EE0411241FBECFEFD8E0DEBFCDBF8D
:1000D00011E0A0E0B1E0E6ECFAE002C005900D927C
:1000E000AA35B107D9F721E0AAE5B1E001C01D9218
:1000F000AE38B207E1F710E0C2E6D0E004C02197C5
:10010000FE010E945B05C136D107C9F70E94FD03BD
:100110000C9461050C940000833081F028F4813048
:1001200099F08230A1F008958730A9F08830B9F0B5
:100130008430D1F4809180008F7D03C08091800055
:100140008F7780938000089584B58F7702C084B53F
:100150008F7D84BD08958091B0008F7703C080911A
:10016000B0008F7D8093B0000895CF93DF93E0EBD4
:10017000F0E08491ECE9F0E0D491E8E8F0E0C4919B
:10018000CC2391F081110E948C00EC2FF0E0EE0F57
:10019000FF1FE458FF4FA591B491EC91ED2381E04E
:1001A00090E021F480E002C080E090E0DF91CF9108
:1001B00008951F93CF93DF93282F30E0F901E25584
:1001C000FF4F8491F901E656FF4FD491F901EA57A8
:1001D000FF4FC491CC23C1F0162F81110E948C00D7
:1001E000EC2FF0E0EE0FFF1FEE58FF4FA591B491FA
:1001F0009FB7F894111104C08C91D095D82302C0F8
:10020000EC91DE2BDC939FBFDF91CF911F9108957E
:10021000CF93DF93C82FD0E080917B01D81758F49B
:10022000ED2FF0E0ED59FE4F6091660187850E9449
:10023000D900DF5FF1CFEC2FF0E0ED59FE4F609178
:1002400064018781DF91CF910C94D900CF93DF9324
:10025000C82FD0E080917A01D81758F4ED2FF0E044
:10026000ED59FE4F6091640187810E94D900DF5FE4
:10027000F1CFEC2FF0E0ED59FE4F609166018785DC
:10028000DF91CF910C94D9001F93CF93DF93C82FA8
:10029000D0E0CD59DE4F609163018F810E94D9007B
:1002A00010E06A9680917B011817A8F4E12FF0E026
:1002B000888190E0012E02C0959587950A94E2F717
:1002C00080FF07C0ED59FE4F6091650187850E9450
:1002D000D9001F5FE7CFDF91CF911F9108950F9352
:1002E0001F93CF93C82FE82FF0E0ED59FE4F609198
:1002F000650187850E94D90001E010E002C0000F6F
:10030000111FCA95E2F7C0E080917A01C81788F4FE
:10031000EC2FF0E0ED59FE4F828D90E08023912389
:10032000892B29F06091630187810E94D900CF5FFA
:10033000EBCFCF911F910F910895CF93DF9390E072
:10034000FC01E656FF4F2491FC01EA57FF4F8491D0
:10035000882361F190E0880F991FFC01E859FF4F55
:10036000C591D491FC01EE58FF4FA591B491611154
:1003700009C09FB7F8948881209582238883EC91E7
:100380002E230BC0623061F49FB7F8948881322F1E
:10039000309583238883EC912E2B2C939FBF06C02E
:1003A0008FB7F894E8812E2B28838FBFDF91CF91F0
:1003B00008958230910538F0880F991F880F991F92
:1003C00005970197F1F708953FB7F89480915F0181
:1003D00090916001A0916101B091620126B5A89B46
:1003E00005C02F3F19F00196A11DB11D3FBFBA2FC7
:1003F000A92F982F8827820F911DA11DB11DBC0127
:10040000CD0142E0660F771F881F991F4A95D1F7EB
:1004100008952F923F924F925F926F927F928F92A8
:100420009F92AF92BF92CF92DF92EF92FF920F9383
:100430001F93CF93DF93CDB7DEB72A970FB6F8940B
:10044000DEBF0FBECDBF6C01990FEE08FF086090B4
:100450007A01A62CB12CC501880F991F880F991F0E
:10046000FC01EF5CFE4F40815181628173818E01FE
:100470000F5F1F4FC416D506E606F706A4F4FC016D
:10048000E35DFE4F408151816281738181E090E0A4
:10049000A0E0B0E0841B950BA60BB70BC816D906DD
:1004A000EA06FB0664F4F80185E29E2F901B961580
:1004B00020F08DE791E0D80158C08193F6CFF7FE88
:1004C0000DC085E28983F094E094D094C094C11C5F
:1004D000D11CE11CF11C7724739401C0712CC5015F
:1004E00001979A878987761430F5872C912CE985B6
:1004F000FA85E819F909EE0FFF1FEE0FFF1FEF5CF9
:10050000FE4F2080318042805380C701B601A20196
:1005100091010E940005F801E80DF91D2083A22F2A
:10052000B0E0A20191010E941F05C61AD70AE80A8D
:10053000F90A7394D8CF809169018111BACF91E003
:10054000A91AB10824E2E82FF0E0EA15FB050CF047
:10055000B0CFE00FF11F9081911102C0208303C042
:100560009A3008F4A6CF8F5FEECF2A2F201B2615D6
:1005700048F4ED91F0E0E85FFE4F2081FC0121930B
:10058000CF01F3CF80916801811175C00E94E40111
:1005900040918D0100918501109186012091870184
:1005A000309188016B017C01C01AD10AE20AF30A7A
:1005B000442329F000918B0110918C0104C000911B
:1005C000890110918A01012E000C220B330BC016F9
:1005D000D106E206F30608F486C0609385017093A5
:1005E0008601809387019093880190916701911112
:1005F00023C0442319F010928D010EC080917C011C
:100600000E94260180918B0190918C01892B21F011
:1006100081E080938D0167C080917C018F5F809322
:100620007C0190917B01891710F010927C018091E0
:100630007C010E946F0157C0442319F010928D0174
:100640000AC080917C010E94080180918B019091E9
:100650008C01892BE9F680917C018F5F80937C016E
:1006600090917A01891710F010927C0180917C01A1
:100670000E94440138C08091670110E081112FC0B1
:1006800080917B01181778F5812F0E946F0180916E
:10069000890190918A010E94D901812F0E9426012F
:1006A00080918B0190918C01009711F00E94D901EB
:1006B0001F5FE6CF812F0E944401809189019091B4
:1006C0008A010E94D901812F0E94080180918B012B
:1006D00090918C01009711F00E94D9011F5F8091C9
:1006E0007A01181738F30E94E4014B015C0184EF92
:1006F000C82EDD24D394E12CF12C0E94E401DC010E
:10070000CB0188199909AA09BB09883E9340A10524
:10071000B10598F3F1E0CF1AD108E108F10828EE0D
:10072000820E23E0921EA11CB11CC114D104E1046D
:10073000F10419F72A960FB6F894DEBF0FBECDBFAD
:10074000DF91CF911F910F91FF90EF90DF90CF90AD
:10075000BF90AF909F908F907F906F905F904F90E1
:100760003F902F9008951F920F920FB60F92112471
:100770002F933F938F939F93AF93BF9380915B0190
:1007800090915C01A0915D01B0915E0130915A01A0
:1007900023E0230F2D3720F40196A11DB11D05C0C4
:1007A00026E8230F0296A11DB11D20935A018093C4
:1007B0005B0190935C01A0935D01B0935E01809119
:1007C0005F0190916001A0916101B0916201019679
:1007D000A11DB11D80935F0190936001A093610101
:1007E000B0936201BF91AF919F918F913F912F91F3
:1007F0000F900FBE0F901F901895CF93DF93CDB73A
:10080000DEB729970FB6F894DEBF0FBECDBF789440
:1008100084B5826084BD84B5816084BD85B5826005
:1008200085BD85B5816085BD80916E0081608093B6
:100830006E0010928100809181008260809381001F
:10084000809181008160809381008091800081602F
:10085000809380008091B10084608093B10080918A
:10086000B00081608093B00080917A0084608093B2
:100870007A0080917A00826080937A0080917A0079
:10088000816080937A0080917A00806880937A00FA
:100890001092C10088E0E0E0F1E0DE0111960190E5
:1008A0000D928A95E1F781E08093670110926801CB
:1008B0001092690180937A0198E090937B011092E5
:1008C0006301809365018093640110926601FE01CB
:1008D0003196A2E7B1E0CE01099621912D93E81758
:1008E000F907D9F7898580936A0110E080917A0130
:1008F000181710F010E013C0812F90E09C012D59C3
:100900003E4F790161E0F90187810E949D0160916C
:100910006401F70187810E94D9001F5FE7CF8091B2
:100920007B01181798F4812F90E09C012D593E4FC0
:10093000790161E0F90187850E949D01609166015E
:10094000F70187850E94D9001F5FE9CF90917A0156
:10095000EDE7F1E080E0981719F011928F5FFBCF7F
:1009600080E00E94260180E00E94080188E097E074
:1009700090938A018093890110928C0110928B01CF
:1009800010928D0160E082E00E949D0180E0E82EDF
:1009900080E0F82E0E94B500019799F401E010E084
:1009A000C8010E9409020E5F1F4F0B301105C1F7ED
:1009B000F1CFC8010E9409020E5F1F4F0A301105D6
:1009C000C1F70E94B500892B19F400E010E0F1CFC7
:1009D000E114F104F9F20E940000DCCFE3E6F1E05B
:1009E00080ED97E097A386A311A610A612A6178AFA
:1009F000118E12A213A214A215A2148215820895B8
:100A0000052E97FB1EF400940E94170557FD07D092
:100A10000E942A0507FC03D04EF40C94170550954C
:100A20004095309521953F4F4F4F5F4F08959095DA
:100A30008095709561957F4F8F4F9F4F08950E94CD
:100A40004C05A59F900DB49F900DA49F800D911D06
:100A500011240895A1E21A2EAA1BBB1BFD010DC093
:100A6000AA1FBB1FEE1FFF1FA217B307E407F5075E
:100A700020F0A21BB30BE40BF50B661F771F881F3A
:100A8000991F1A9469F760957095809590959B01D0
:100A9000AC01BD01CF010895A29FB001B39FC00179
:100AA000A39F700D811D1124911DB29F700D811D9A
:100AB0001124911D0895EE0FFF1F0590F491E02D74
:060AC0000994F894FFCF39
:100AC6000B0A0908070605043F065B4F666D7D079E
:100AD6007F6F777C395E79713D76300E76380054BB
:100AE6003F7367506D783E3E00766E5B00408063D4
:100AF60008010000000A00000064000000E803008E
:100B06000010270000A086010040420F0080969842
:0A0B16000000E1F50500CA9A3B005B
:107E0000112484B714BE81FFF0D085E080938100F7
:107E100082E08093C00088E18093C10086E0809377
:107E2000C20080E18093C4008EE0C9D0259A86E02C
:107E300020E33CEF91E0309385002093840096BBD3
:107E4000B09BFECF1D9AA8958150A9F7CC24DD24C4
:107E500088248394B5E0AB2EA1E19A2EF3E0BF2EE7
:107E6000A2D0813461F49FD0082FAFD0023811F036
:107E7000013811F484E001C083E08DD089C08234E0
:107E800011F484E103C0853419F485E0A6D080C0E4
:107E9000853579F488D0E82EFF2485D0082F10E0AE
:107EA000102F00270E291F29000F111F8ED06801E7
:107EB0006FC0863521F484E090D080E0DECF843638
:107EC00009F040C070D06FD0082F6DD080E0C81688
:107ED00080E7D80618F4F601B7BEE895C0E0D1E017
:107EE00062D089930C17E1F7F0E0CF16F0E7DF06D8
:107EF00018F0F601B7BEE89568D007B600FCFDCFD4
:107F0000A601A0E0B1E02C9130E011968C91119780
:107F100090E0982F8827822B932B1296FA010C0160
:107F200087BEE89511244E5F5F4FF1E0A038BF0790
:107F300051F7F601A7BEE89507B600FCFDCF97BE46
:107F4000E89526C08437B1F42ED02DD0F82E2BD052
:107F50003CD0F601EF2C8F010F5F1F4F84911BD097
:107F6000EA94F801C1F70894C11CD11CFA94CF0C13
:107F7000D11C0EC0853739F428D08EE10CD085E9AC
:107F80000AD08FE07ACF813511F488E018D01DD067
:107F900080E101D065CF982F8091C00085FFFCCF94
:107FA0009093C60008958091C00087FFFCCF809118
:107FB000C00084FD01C0A8958091C6000895E0E648
:107FC000F0E098E1908380830895EDDF803219F02E
:107FD00088E0F5DFFFCF84E1DECF1F93182FE3DFCA
:107FE0001150E9F7F2DF1F91089580E0E8DFEE27F6
:047FF000FF270994CA
:027FFE00040479
:0400000300007E007B
:00000001FF
