:100000000C945C000C9479000C9479000C947900A9
:100010000C9479000C9479000C9479000C9479007C
:100020000C9479000C9479000C9479000C9479006C
:100030000C9479000C9479000C9479000C9479005C
:100040000C9400010C9479000C9479000C947900C4
:100050000C9479000C9479000C9479000C9479003C
:100060000C9479000C947900000000002400270013
:100070002A0000000000250028002B0004040404CE
:100080000404040402020202020203030303030342
:10009000010204081020408001020408102001021F
:1000A00004081020000000080002010000030407FB
:1000B000000000000000000011241FBECFEFD8E0B8
:1000C000DEBFCDBF11E0A0E0B1E0EEEEF4E002C093
:1000D00005900D92A030B107D9F721E0A0E0B1E082
:1000E00001C01D92A930B207E1F70E944A010C94A9
:1000F00075020C940000EDEAF0E09491E9E9F0E07B
:100100002491E5E8F0E0E491EE2309F43CC0992362
:1001100039F1933091F038F49130A9F0923001F533
:1001200094B59F7D12C0973091F09830A1F0943033
:10013000B9F4909180009F7D03C0909180009F77DB
:10014000909380000DC094B59F7794BD09C09091A5
:10015000B0009F7703C09091B0009F7D9093B00056
:10016000F0E0EE0FFF1FEE58FF4FA591B4919FB73F
:10017000F894811104C08C912095282302C0EC9141
:100180002E2B2C939FBF0895CF93DF9390E0FC011B
:10019000E057FF4F2491FC01E458FF4F84918823DE
:1001A00061F190E0880F991FFC01E859FF4FC5915C
:1001B000D491FC01EE58FF4FA591B491611109C093
:1001C0009FB7F8948881209582238883EC912E2311
:1001D0000BC0623061F49FB7F8948881322F30955C
:1001E00083238883EC912E2B2C939FBF06C08FB75F
:1001F000F894E8812E2B28838FBFDF91CF9108954B
:100200001F920F920FB60F9211242F933F938F934B
:100210009F93AF93BF938091050190910601A091A8
:100220000701B09108013091040123E0230F2D371D
:1002300020F40196A11DB11D05C026E8230F0296EA
:10024000A11DB11D20930401809305019093060127
:10025000A0930701B09308018091000190910101E2
:10026000A0910201B09103010196A11DB11D8093DF
:10027000000190930101A0930201B0930301BF918B
:10028000AF919F918F913F912F910F900FBE0F9043
:100290001F901895789484B5826084BD84B5816080
:1002A00084BD85B5826085BD85B5816085BD809141
:1002B0006E00816080936E001092810080918100B9
:1002C00082608093810080918100816080938100B1
:1002D000809180008160809380008091B100846073
:1002E0008093B1008091B00081608093B0008091D4
:1002F0007A00846080937A0080917A008260809393
:100300007A0080917A00816080937A0080917A00EF
:10031000806880937A001092C10061E089E00E94B9
:10032000C40060E08EE00E94C40088248A9483E0C8
:10033000982EA12CB12C9DEAE92E90E0F92E20E018
:10034000C22E20E0D22ED0E4D0937C0080917A009F
:10035000806480937A0080917A0086FDFCCFA09122
:10036000780080917900B0E0B82B2FEF30E00E9448
:100370006E02A50194010E941E02C22F732E022F4D
:10038000132F61E089E00E94C4000115110511F4EA
:1003900080E004C00F3F110521F481E00E947B0042
:1003A00046C0F7018491833009F148F48130C9F0E7
:1003B0008230C1F584B5806284BDC8BD38C0873045
:1003C00009F1883039F1843069F5809180008062CC
:1003D000809380008C2F972D90938B0080938A00C0
:1003E00026C084B5806884BDC7BD21C080918000CF
:1003F0008068809380008C2F972D90938900809344
:10040000880015C08091B00080688093B000C093D0
:10041000B3000DC08091B00080628093B000C093A3
:10042000B40005C0003811050CF0B7CFB1CFC1142E
:10043000D10409F489CF0E94000086CF052E97FBD6
:100440001EF400940E94350257FD07D00E943D0221
:1004500007FC03D04EF40C9435025095409530952E
:1004600021953F4F4F4F5F4F089590958095709520
:1004700061957F4F8F4F9F4F0895A1E21A2EAA1BBF
:10048000BB1BFD010DC0AA1FBB1FEE1FFF1FA21744
:10049000B307E407F50720F0A21BB30BE40BF50B41
:1004A000661F771F881F991F1A9469F760957095CA
:1004B000809590959B01AC01BD01CF010895A29F4D
:1004C000B001B39FC001A39F700D811D1124911D28
:1004D000B29F700D811D1124911D08950E945F022D
:0E04E000B7FF0895821B930B0895F894FFCF89
:107E0000112484B714BE81FFF0D085E080938100F7
:107E100082E08093C00088E18093C10086E0809377
:107E2000C20080E18093C4008EE0C9D0259A86E02C
:107E300020E33CEF91E0309385002093840096BBD3
:107E4000B09BFECF1D9AA8958150A9F7CC24DD24C4
:107E500088248394B5E0AB2EA1E19A2EF3E0BF2EE7
:107E6000A2D0813461F49FD0082FAFD0023811F036
:107E7000013811F484E001C083E08DD089C08234E0
:107E800011F484E103C0853419F485E0A6D080C0E4
:107E9000853579F488D0E82EFF2485D0082F10E0AE
:107EA000102F00270E291F29000F111F8ED06801E7
:107EB0006FC0863521F484E090D080E0DECF843638
:107EC00009F040C070D06FD0082F6DD080E0C81688
:107ED00080E7D80618F4F601B7BEE895C0E0D1E017
:107EE00062D089930C17E1F7F0E0CF16F0E7DF06D8
:107EF00018F0F601B7BEE89568D007B600FCFDCFD4
:107F0000A601A0E0B1E02C9130E011968C91119780
:107F100090E0982F8827822B932B1296FA010C0160
:107F200087BEE89511244E5F5F4FF1E0A038BF0790
:107F300051F7F601A7BEE89507B600FCFDCF97BE46
:107F4000E89526C08437B1F42ED02DD0F82E2BD052
:107F50003CD0F601EF2C8F010F5F1F4F84911BD097
:107F6000EA94F801C1F70894C11CD11CFA94CF0C13
:107F7000D11C0EC0853739F428D08EE10CD085E9AC
:107F80000AD08FE07ACF813511F488E018D01DD067
:107F900080E101D065CF982F8091C00085FFFCCF94
:107FA0009093C60008958091C00087FFFCCF809118
:107FB000C00084FD01C0A8958091C6000895E0E648
:107FC000F0E098E1908380830895EDDF803219F02E
:107FD00088E0F5DFFFCF84E1DECF1F93182FE3DFCA
:107FE0001150E9F7F2DF1F91089580E0E8DFEE27F6
:047FF000FF270994CA
:027FFE00040479
:0400000300007E007B
:00000001FF
