:100000000C9461000C947E000C947E000C947E0095
:100010000C947E000C947E000C947E000C947E0068
:100020000C947E000C947E000C947E000C947E0058
:100030000C947E000C947E000C947E000C947E0048
:100040000C9462010C947E000C947E000C947E0053
:100050000C947E000C947E000C947E000C947E0028
:100060000C947E000C947E00000000002400270009
:100070002A0000000000250028002B0000000000DE
:1000800023002600290004040404040404040202DA
:100090000202020203030303030301020408102007
:1000A0004080010204081020010204081020000012
:1000B0000008000201000003040700000000000027
:1000C000000011241FBECFEFD8E0DEBFCDBF11E08E
:1000D000A0E0B1E0EEE9F5E002C005900D92AA3093
:1000E000B107D9F721E0AAE0B1E001C01D92A33128
:1000F000B207E1F70E94AC010C94CD020C94000011
:10010000833081F028F4813099F08230A1F0089595
:100110008730A9F08830B9F08430D1F48091800024
:100120008F7D03C0809180008F7780938000089539
:1001300084B58F7702C084B58F7D84BD089580918A
:10014000B0008F7703C08091B0008F7D8093B000A6
:100150000895CF93DF93282F30E0F901E255FF4F48
:100160008491F901E656FF4FD491F901EA57FF4F08
:10017000C491CC2391F081110E948000EC2FF0E01B
:10018000EE0FFF1FE458FF4FA591B491EC91ED23C2
:1001900081E090E021F480E002C080E090E0DF9117
:1001A000CF9108951F93CF93DF93282F30E0F9016B
:1001B000E255FF4F8491F901E656FF4FD491F901C2
:1001C000EA57FF4FC491CC23C1F0162F81110E9432
:1001D0008000EC2FF0E0EE0FFF1FEE58FF4FA591CF
:1001E000B4919FB7F894111104C08C91D095D82385
:1001F00002C0EC91DE2BDC939FBFDF91CF911F916A
:100200000895CF93DF9390E0FC01E656FF4F2491D1
:10021000FC01EA57FF4F8491882361F190E0880F39
:10022000991FFC01E859FF4FC591D491FC01EE588C
:10023000FF4FA591B491611109C09FB7F8948881CF
:10024000209582238883EC912E230BC0623061F4C9
:100250009FB7F8948881322F309583238883EC915F
:100260002E2B2C939FBF06C08FB7F894E8812E2BBE
:1002700028838FBFDF91CF9108953FB7F894809185
:100280000F0190911001A0911101B091120126B5BA
:10029000A89B05C02F3F19F00196A11DB11D3FBFBE
:1002A000BA2FA92F982F8827820F911DA11DB11D4C
:1002B000BC01CD0142E0660F771F881F991F4A9548
:1002C000D1F708951F920F920FB60F9211242F931A
:1002D0003F938F939F93AF93BF9380910B01909126
:1002E0000C01A0910D01B0910E0130910A0123E0A3
:1002F000230F2D3720F40196A11DB11D05C026E85E
:10030000230F0296A11DB11D20930A0180930B01BA
:1003100090930C01A0930D01B0930E0180910F01F9
:1003200090911001A0911101B09112010196A11DAF
:10033000B11D80930F0190931001A0931101B09310
:100340001201BF91AF919F918F913F912F910F908B
:100350000FBE0F901F901895789484B5826084BD6D
:1003600084B5816084BD85B5826085BD85B58160B9
:1003700085BD80916E00816080936E001092810037
:1003800080918100826080938100809181008160F2
:1003900080938100809180008160809380008091B3
:1003A000B10084608093B1008091B000816080933F
:1003B000B00080917A00846080937A0080917A0006
:1003C000826080937A0080917A00816080937A00C5
:1003D00080917A00806880937A001092C10061E079
:1003E00089E00E940101C2E0D1E03AE0E32E31E071
:1003F000F32E1881229660E0812F0E94010161E0B6
:10040000812F0E94D200EC16FD0699F707EB10E051
:1004100090E0E92E90E0F92ECC24CA94D12C81E012
:100420000E94A900892B31F4809100019091010173
:1004300001960AC082E00E94A900892B51F48091A4
:1004400000019091010101979093010180930001B7
:1004500013C083E00E94A900892B29F4D0920101E6
:10046000C092000109C084E00E94A900892B21F4F8
:100470001092010110920001C0910001D091010180
:10048000CF3FD10519F014F0CFEFD0E0D7FF02C075
:10049000C0E0D0E0D0930101C093000161E089E0A9
:1004A0000E940101209711F460E004C0CF3FD10504
:1004B00029F461E089E00E94D20042C0F8018491F1
:1004C0008330F9F048F48130B9F08230A1F584B579
:1004D000806284BDC8BD34C08730E9F0883019F12E
:1004E000843049F580918000806280938000D093B1
:1004F0008B00C0938A0024C084B5806884BDC7BDCA
:100500001FC080918000806880938000D093890014
:10051000C093880015C08091B00080688093B000BF
:10052000C093B3000DC08091B00080628093B00092
:10053000C093B40005C0C038D1050CF0BACFB4CF19
:100540000E943D012B013C0189E1882E912CA12CB8
:10055000B12C0E943D01DC01CB0184199509A6094B
:10056000B709883E9340A105B10598F3F1E08F1AD1
:100570009108A108B10828EE420E23E0521E611C2A
:10058000711C81149104A104B10419F7E114F10460
:0E05900009F445CF0E94000042CFF894FFCF3F
:0A059E001E0001000200030004002B
:00000001FF
