:100000000C945D000C9485000C9485000C94850084
:100010000C9485000C9485000C9485000C9485004C
:100020000C9485000C9485000C9485000C9485003C
:100030000C9485000C9485000C9485000C9485002C
:100040000C948C020C9485000C9485000C94850013
:100050000C9485000C9485000C9485000C9485000C
:100060000C9485000C94850000000008000201003B
:100070000003040700000000000000000000000072
:10008000250028002B0000000000240027002A0083
:10009000040404040404040402020202020203032E
:1000A0000303030301020408102040800102040836
:1000B0001020010204081020770311241FBECFEF87
:1000C000D8E0DEBFCDBF11E0A0E0B1E0E4E4F7E0AE
:1000D00002C005900D92A431B107D9F721E0A4E147
:1000E000B1E001C01D92A533B207E1F710E0CDE504
:1000F000D0E004C02197FE010E949503CC35D107C2
:10010000C9F70E94D6020C94A0030C94000090E062
:10011000FC01EC55FF4F2491FC01E057FF4F849107
:10012000882399F090E0880F991FFC01EA57FF4F50
:10013000A591B491FC01E458FF4F859194918FB73C
:10014000F894EC91E22BEC938FBF089590E0FC01C2
:10015000E859FF4F2491FC01EC55FF4F3491FC010D
:10016000E057FF4FE491EE2309F43CC0222339F11C
:10017000233091F038F42130A9F0223001F584B514
:100180008F7D12C0273091F02830A1F02430B9F4CF
:10019000809180008F7D03C0809180008F77809355
:1001A00080000DC084B58F7784BD09C08091B000F8
:1001B0008F7703C08091B0008F7D8093B000F0E016
:1001C000EE0FFF1FE458FF4FA591B4919FB7F8942D
:1001D000611104C08C913095382302C0EC913E2B04
:1001E0003C939FBF08953FB7F89480911901909177
:1001F0001A01A0911B01B0911C0126B5A89B05C056
:100200002F3F19F00196A11DB11D3FBFBA2FA92F95
:10021000982F8827820F911DA11DB11DBC01CD0112
:1002200042E0660F771F881F991F4A95D1F70895FE
:10023000CF92DF92EF92FF920F931F93CF93DF93B2
:100240006C017A018B01C0E0D0E0CE15DF0581F0B2
:10025000D8016D918D01D601ED91FC910190F08155
:10026000E02DC6010995892B11F02196EECF7E0174
:10027000C701DF91CF911F910F91FF90EF90DF9019
:10028000CF900895CF93DF93EC0160E08E810E94C0
:10029000A60061E08E810E94A60060E08E810E942F
:1002A000A6008BE891E00197F1F7DF91CF910895D7
:1002B000CF92DF92EF92FF920F931F93CF93DF9332
:1002C0006C017C0187E0E80EF11CC0E0D0E0062F55
:1002D00010E0B8010C2E02C0759567950A94E2F7FC
:1002E0006170F70181917F010E94A6002196C430C0
:1002F000D10579F7C601DF91CF911F910F91FF9042
:10030000EF90DF90CF900C944201CF92DF92EF926A
:10031000FF920F931F93CF93DF93EC01F62E642F80
:100320008C810E94A6008D818F3F19F060E00E94B1
:10033000A6008F850F2D10E084FF25C06E0187E099
:10034000C80ED11CE12CF12CB8010E2C02C0759501
:1003500067950A94E2F76170F60181916F010E943E
:10036000A600FFEFEF1AFF0A88E0E816F10461F734
:10037000CE01DF91CF911F910F91FF90EF90DF9011
:10038000CF900C944201B80184E0759567958A95E9
:10039000E1F7CE010E9458016F2DCE01DF91CF9180
:1003A0001F910F91FF90EF90DF90CF900C94580128
:1003B00040E0682F8DE191E00C948501CF93DF93AD
:1003C000823028F090912C01986090932C018093BA
:1003D00030011092310180E48093320180E18093FA
:1003E000330180E580933401809121010E948700D0
:1003F000809122018F3F11F00E948700809123019C
:100400000E948700CDE1D1E09E012D5131408091C5
:100410002C0184FD03C084E090E002C088E090E0FD
:1004200021962817390724F48E810E948700ECCF8B
:100430008BE39DE00197F1F760E0809121010E943C
:10044000A60060E0809123010E94A6008091220115
:100450008F3F19F060E00E94A60080912C0184FD7E
:1004600020C063E08DE191E00E945801CBE4D6E426
:10047000CE010197F1F763E08DE191E00E94580110
:100480002197F1F763E08DE191E00E94580183E547
:1004900092E00197F1F762E08DE191E00E9458014E
:1004A00015C080620E94D8018BE496E40197F1F7B1
:1004B00080912C0180620E94D80183E592E001972F
:1004C000F1F780912C0180620E94D80180912C016B
:1004D00080620E94D80184E080932D018CE00E940C
:1004E000D80181E00E94D8018BE39FE10197F1F7E9
:1004F00082E080932E0186E0DF91CF910C94D801A9
:1005000041E00E94850181E090E00895089580E037
:1005100090E008950E949B031F920F920FB60F92D6
:1005200011242F933F938F939F93AF93BF93809109
:10053000150190911601A0911701B0911801309109
:10054000140123E0230F2D3720F40196A11DB11DC6
:1005500005C026E8230F0296A11DB11D20931401AA
:100560008093150190931601A0931701B093180181
:100570008091190190911A01A0911B01B0911C0169
:100580000196A11DB11D8093190190931A01A093AA
:100590001B01B0931C01BF91AF919F918F913F912F
:1005A0002F910F900FBE0F901F901895789484B5DF
:1005B000826084BD84B5816084BD85B5826085BD5F
:1005C00085B5816085BD80916E00816080936E00ED
:1005D00010928100809181008260809381008091DF
:1005E0008100816080938100809180008160809390
:1005F00080008091B10084608093B1008091B00050
:1006000081608093B00080917A00846080937A004A
:1006100080917A00826080937A0080917A00816074
:1006200080937A0080917A00806880937A0010929B
:10063000C10082E00E94DE0180E40E94D801C0E097
:10064000D1E008E011E069918DE191E00E94800223
:100650000C171D07C1F7CFE0E1E080913001811157
:10066000E0E0E195F0E0E35EFE4F84898C0F806866
:100670000E94D80160E08DE191E00E948002C150AB
:10068000C53051F700E010E0CCE0D0E088E10E94F6
:10069000D8010E94F3004B015C0184E6C82ED12CE6
:1006A000E12CF12C0E94F300DC01CB01881999099F
:1006B000AA09BB09883E9340A105B10598F321E042
:1006C000C21AD108E108F10888EE880E83E0981E6E
:1006D000A11CB11CC114D104E104F10419F7219744
:1006E000A9F60115110581F20E940000CDCFEDE1C0
:1006F000F1E0138212828CE091E09183808386E0A6
:1007000084838FEF858387E0868389E087838AE00F
:1007100080878BE081878CE082871386148615861C
:100720001686178681E00C94DE01EE0FFF1F059000
:10073000F491E02D099481E090E0F8940C94A003EA
:04074000F894FFCF5B
:10074400000004081F0804000000000080021801D3
:040754008702860290
:00000001FF
