:020000020000FC
:1000000000C00FE50DBF02E00EBF4FEF44BB4ABB7F
:10001000E0EAF0E011E000E08CE034E035BBE12FF5
:1000200024912BBB1BD032E035BB302F307F329573
:10003000E32F24912BBB12D031E035BB302F3F7022
:10004000E32F24912BBB0AD08A9539F7B1E00B0F2F
:10005000151D133009F70031F9F6FFCF5F936F9349
:100060007F9351E062E270E07A95F1F76A95D9F7F3
:0C0070005A95C1F77F916F915F91089540
:1000A0003F065B4F666D7D077F6F777C395E7971A8
:00000001FF
