:100000000C9462000C948A000C948A000C948A0070
:100010000C948A000C948A000C948A000C948A0038
:100020000C948A000C948A000C948A000C948A0028
:100030000C948A000C948A000C948A000C948A0018
:100040000C94D0030C948A000C948A000C948A00BF
:100050000C948A000C948A000C948A000C948A00F8
:100060000C948A000C948A000000000024002700F1
:100070002A0000000000250028002B0000000000DE
:1000800023002600290004040404040404040202DA
:100090000202020203030303030301020408102007
:1000A0004080010204081020010204081020000012
:1000B0000008000201000003040700000000000027
:1000C0000000230511241FBECFEFD8E0DEBFCDBF57
:1000D00011E0A0E0B1E0E0E3FBE002C005900D928A
:1000E000AA35B107D9F721E0AAE5B1E001C01D9218
:1000F000AE38B207E1F710E0C2E6D0E004C02197C5
:10010000FE010E949005C136D107C9F70E941A046A
:100110000C9496050C940000833081F028F4813013
:1001200099F08230A1F008958730A9F08830B9F0B5
:100130008430D1F4809180008F7D03C08091800055
:100140008F7780938000089584B58F7702C084B53F
:100150008F7D84BD08958091B0008F7703C080911A
:10016000B0008F7D8093B0000895CF93DF93282F48
:1001700030E0F901E255FF4F8491F901E656FF4F57
:10018000D491F901EA57FF4FC491CC2391F081112A
:100190000E948C00EC2FF0E0EE0FFF1FE458FF4FA1
:1001A000A591B491EC91ED2381E090E021F480E001
:1001B00002C080E090E0DF91CF9108951F93CF932C
:1001C000DF93282F30E0F901E255FF4F8491F901C8
:1001D000E656FF4FD491F901EA57FF4FC491CC2363
:1001E000C1F0162F81110E948C00EC2FF0E0EE0F71
:1001F000FF1FEE58FF4FA591B4919FB7F8941111CE
:1002000004C08C91D095D82302C0EC91DE2BDC93F6
:100210009FBFDF91CF911F910895CF93DF93C82F98
:10022000D0E080917B01D81758F4ED2FF0E0ED5924
:10023000FE4F6091660187850E94DE00DF5FF1CF8F
:10024000EC2FF0E0ED59FE4F609164018781DF9162
:10025000CF910C94DE00CF93DF93C82FD0E0809134
:100260007A01D81758F4ED2FF0E0ED59FE4F609168
:10027000640187810E94DE00DF5FF1CFEC2FF0E0A8
:10028000ED59FE4F609166018785DF91CF910C9407
:10029000DE001F93CF93DF93C82FD0E0CD59DE4F00
:1002A000609163018F810E94DE0010E06A96809168
:1002B0007B011817A8F4E12FF0E0888190E0012E6F
:1002C00002C0959587950A94E2F780FF07C0ED5923
:1002D000FE4F6091650187850E94DE001F5FE7CFBA
:1002E000DF91CF911F9108950F931F93CF93C82F44
:1002F000E82FF0E0ED59FE4F6091650187850E947F
:10030000DE0001E010E002C0000F111FCA95E2F705
:10031000C0E080917A01C81788F4EC2FF0E0ED5925
:10032000FE4F828D90E080239123892B29F06091EC
:10033000630187810E94DE00CF5FEBCFCF911F91D9
:100340000F910895CF93DF9390E0FC01E656FF4FA5
:100350002491FC01EA57FF4F8491882361F190E0DA
:10036000880F991FFC01E859FF4FC591D491FC01FA
:10037000EE58FF4FA591B491611109C09FB7F89451
:100380008881209582238883EC912E230BC06230D4
:1003900061F49FB7F8948881322F30958323888346
:1003A000EC912E2B2C939FBF06C08FB7F894E88159
:1003B0002E2B28838FBFDF91CF9108958230910536
:1003C00038F0880F991F880F991F05970197F1F74B
:1003D00008953FB7F89480915F0190916001A091DA
:1003E0006101B091620126B5A89B05C02F3F19F0AD
:1003F0000196A11DB11D3FBFBA2FA92F982F8827A5
:10040000820F911DA11DB11DBC01CD0142E0660FFF
:10041000771F881F991F4A95D1F708958F929F9251
:10042000AF92BF92CF92DF92EF92FF926B017C016D
:100430000E94E9014B015C01C114D104E104F10403
:10044000F1F00E94E901DC01CB0188199909AA09A0
:10045000BB09883E9340A105B10570F321E0C21AA3
:10046000D108E108F10888EE880E83E0981EA11CEF
:10047000B11CC114D104E104F10419F7DDCFFF90E0
:10048000EF90DF90CF90BF90AF909F908F900895A6
:100490002F923F924F925F926F927F928F929F9294
:1004A000AF92BF92CF92DF92EF92FF920F931F9382
:1004B000CF93DF93CDB7DEB72A970FB6F894DEBFA0
:1004C0000FBECDBF6C01990FEE08FF0860907A0156
:1004D000A62CB12CC501880F991F880F991FFC010C
:1004E000EF5CFE4F40815181628173818E010F5F0D
:1004F0001F4FC416D506E606F706A4F4FC01E35D1B
:10050000FE4F408151816281738181E090E0A0E0E3
:10051000B0E0841B950BA60BB70BC816D906EA06EC
:10052000FB0664F4F80185E29E2F901B961520F0DF
:100530008DE791E0D80158C08193F6CFF7FE0DC04A
:1005400085E28983F094E094D094C094C11CD11CBE
:10055000E11CF11C7724739401C0712CC501019733
:100560009A878987761430F5872C912CE985FA854E
:10057000E819F909EE0FFF1FEE0FFF1FEF5CFE4FAA
:100580002080318042805380C701B601A2019101D1
:100590000E943505F801E80DF91D2083A22FB0E077
:1005A000A20191010E945405C61AD70AE80AF90A65
:1005B0007394D8CF809169018111BACF91E0A91AC3
:1005C000B10824E2E82FF0E0EA15FB050CF0B0CF0B
:1005D000E00FF11F9081911102C0208303C09A3077
:1005E00008F4A6CF8F5FEECF2A2F201B261548F4E4
:1005F000ED91F0E0E85FFE4F2081FC012193CF01F7
:10060000F3CF80916801811175C00E94E90140918A
:100610008D01009185011091860120918701309113
:1006200088016B017C01C01AD10AE20AF30A442353
:1006300029F000918B0110918C0104C00091890177
:1006400010918A01012E000C220B330BC016D1062B
:10065000E206F30608F486C0609385017093860174
:10066000809387019093880190916701911123C035
:10067000442319F010928D010EC080917C010E94DC
:100680002B0180918B0190918C01892B21F081E0CD
:1006900080938D0167C080917C018F5F80937C0186
:1006A00090917B01891710F010927C0180917C0160
:1006B0000E94740157C0442319F010928D010AC0A2
:1006C00080917C010E940D0180918B0190918C01A1
:1006D000892BE9F680917C018F5F80937C0190915A
:1006E0007A01891710F010927C0180917C010E94A0
:1006F000490138C08091670110E081112FC08091BD
:100700007B01181778F5812F0E947401809189016F
:1007100090918A010E94DE01812F0E942B0180911D
:100720008B0190918C01009711F00E94DE011F5FF8
:10073000E6CF812F0E9449018091890190918A0121
:100740000E94DE01812F0E940D0180918B0190910A
:100750008C01009711F00E94DE011F5F80917A01E9
:10076000181738F364EF71E080E090E02A960FB636
:10077000F894DEBF0FBECDBFDF91CF911F910F91D7
:10078000FF90EF90DF90CF90BF90AF909F908F90B1
:100790007F906F905F904F903F902F900C940E023F
:1007A0001F920F920FB60F9211242F933F938F93A6
:1007B0009F93AF93BF9380915B0190915C01A09157
:1007C0005D01B0915E0130915A0123E0230F2D3776
:1007D00020F40196A11DB11D05C026E8230F029645
:1007E000A11DB11D20935A0180935B0190935C0180
:1007F000A0935D01B0935E0180915F0190916001D3
:10080000A0916101B09162010196A11DB11D80937B
:100810005F0190936001A0936101B0936201BF9169
:10082000AF919F918F913F912F910F900FBE0F909D
:100830001F901895CF93DF93CDB7DEB729970FB6EA
:10084000F894DEBF0FBECDBF789484B5826084BDBE
:1008500084B5816084BD85B5826085BD85B58160C4
:1008600085BD80916E00816080936E001092810042
:1008700080918100826080938100809181008160FD
:1008800080938100809180008160809380008091BE
:10089000B10084608093B1008091B000816080934A
:1008A000B00080917A00846080937A0080917A0011
:1008B000826080937A0080917A00816080937A00D0
:1008C00080917A00806880937A001092C10088E05D
:1008D000E0E0F1E0DE01119601900D928A95E1F7DA
:1008E00081E0809367011092680110926901809302
:1008F0007A0198E090937B011092630180936501E7
:100900008093640110926601FE013196A2E7B1E086
:10091000CE01099621912D93E817F907D9F789851A
:1009200080936A0110E080917A01181710F010E0AE
:1009300013C0812F90E09C012D593E4F790161E059
:10094000F90187810E94A20160916401F70187810A
:100950000E94DE001F5FE7CF80917B01181798F49B
:10096000812F90E09C012D593E4F790161E0F90102
:1009700087850E94A20160916601F70187850E9428
:10098000DE001F5FE9CF90917A01EDE7F1E080E0B2
:10099000981719F011928F5FFBCF80E00E942B0116
:1009A00080E00E940D0188E097E090938A01809397
:1009B000890110928C0110928B0110928D0160E0E0
:1009C00081E00E94A20161E081E00E94DE0060E01F
:1009D00082E00E94A20161E082E00E94DE0080E0ED
:1009E000E82E80E0F82E81E00E94B500892BB9F452
:1009F00064E670E080E090E00E940E0200E010E00B
:100A0000C8010E9448020F5F1F4F0A301105C1F74D
:100A1000EACFC8010E94480201501109D0F782E0D4
:100A20000E94B500892B49F464E670E080E090E014
:100A30000E940E0209E010E0ECCFE114F10499F2FB
:100A40000E940000D0CFE3E6F1E080ED97E097A3AD
:100A500086A311A610A612A6178A118E12A213A29F
:100A600014A215A2148215820895052E97FB1EF478
:100A700000940E944C0557FD07D00E945F0507FCBB
:100A800003D04EF40C944C0550954095309521952B
:100A90003F4F4F4F5F4F08959095809570956195AA
:100AA0007F4F8F4F9F4F08950E948105A59F900D06
:100AB000B49F900DA49F800D911D11240895A1E273
:100AC0001A2EAA1BBB1BFD010DC0AA1FBB1FEE1FC8
:100AD000FF1FA217B307E407F50720F0A21BB30B13
:100AE000E40BF50B661F771F881F991F1A9469F78F
:100AF00060957095809590959B01AC01BD01CF01EB
:100B00000895A29FB001B39FC001A39F700D811DE6
:100B10001124911DB29F700D811D1124911D089506
:100B2000EE0FFF1F0590F491E02D0994F894FFCF8C
:100B30000B0A0908070605043F065B4F666D7D0733
:100B40007F6F777C395E79713D76300E7638005450
:100B50003F7367506D783E3E00766E5B0040806369
:100B600008010000000A00000064000000E8030023
:100B70000010270000A086010040420F00809698D8
:0A0B80000000E1F50500CA9A3B00F1
:00000001FF
