:100000000C9462000C948A000C948A000C948A0070
:100010000C948A000C948A000C948A000C948A0038
:100020000C948A000C948A000C948A000C948A0028
:100030000C948A000C948A000C948A000C948A0018
:100040000C94E2040C948A000C9452050C942C0538
:100050000C948A000C948A000C948A000C948A00F8
:100060000C948A000C948A000000000024002700F1
:100070002A0000000000250028002B0000000000DE
:1000800023002600290004040404040404040202DA
:100090000202020203030303030301020408102007
:1000A0004080010204081020010204081020000012
:1000B0000008000201000003040700000000000027
:1000C0000000840511241FBECFEFD8E0DEBFCDBFF6
:1000D00011E0A0E0B1E0E6ECFEE002C005900D9278
:1000E000AC36B107D9F722E0ACE6B1E001C01D9211
:1000F000AD33B207E1F710E0C2E6D0E004C02197CB
:10010000FE010E945607C136D107C9F70E94C205F9
:100110000C9461070C940000833081F028F4813046
:1001200099F08230A1F008958730A9F08830B9F0B5
:100130008430D1F4809180008F7D03C08091800055
:100140008F7780938000089584B58F7702C084B53F
:100150008F7D84BD08958091B0008F7703C080911A
:10016000B0008F7D8093B0000895CF93DF93282F48
:1001700030E0F901E255FF4F8491F901E656FF4F57
:10018000D491F901EA57FF4FC491CC2391F081112A
:100190000E948C00EC2FF0E0EE0FFF1FE458FF4FA1
:1001A000A591B491EC91ED2381E090E021F480E001
:1001B00002C080E090E0DF91CF9108951F93CF932C
:1001C000DF93282F30E0F901E255FF4F8491F901C8
:1001D000E656FF4FD491F901EA57FF4FC491CC2363
:1001E000C1F0162F81110E948C00EC2FF0E0EE0F71
:1001F000FF1FEE58FF4FA591B4919FB7F8941111CE
:1002000004C08C91D095D82302C0EC91DE2BDC93F6
:100210009FBFDF91CF911F910895CF93DF93C82F98
:10022000D0E080912A02D81758F4ED2FF0E0EE5E6E
:10023000FD4F6091150287850E94DE00DF5FF1CFE0
:10024000EC2FF0E0EE5EFD4F609113028781DF91AD
:10025000CF910C94DE00CF93DF93C82FD0E0809134
:100260002902D81758F4ED2FF0E0EE5EFD4F6091B3
:10027000130287810E94DE00DF5FF1CFEC2FF0E0F8
:10028000EE5EFD4F609115028785DF91CF910C9452
:10029000DE001F93CF93DF93C82FD0E0CE5EDD4FFB
:1002A000609112028F810E94DE0010E06A968091B8
:1002B0002A021817A8F4E12FF0E0888190E0012EBF
:1002C00002C0959587950A94E2F780FF07C0EE5E1D
:1002D000FD4F6091140287850E94DE001F5FE7CF0B
:1002E000DF91CF911F9108950F931F93CF93C82F44
:1002F000E82FF0E0EE5EFD4F6091140287850E94CA
:10030000DE0001E010E002C0000F111FCA95E2F705
:10031000C0E080912902C81788F4EC2FF0E0EE5E6F
:10032000FD4F828D90E080239123892B29F06091ED
:10033000120287810E94DE00CF5FEBCFCF911F9129
:100340000F910895CF93DF9390E0FC01E656FF4FA5
:100350002491FC01EA57FF4F8491882361F190E0DA
:10036000880F991FFC01E859FF4FC591D491FC01FA
:10037000EE58FF4FA591B491611109C09FB7F89451
:100380008881209582238883EC912E230BC06230D4
:1003900061F49FB7F8948881322F30958323888346
:1003A000EC912E2B2C939FBF06C08FB7F894E88159
:1003B0002E2B28838FBFDF91CF9108958230910536
:1003C00038F0880F991F880F991F05970197F1F74B
:1003D00008953FB7F8948091710190917201A091B6
:1003E0007301B091740126B5A89B05C02F3F19F089
:1003F0000196A11DB11D3FBFBA2FA92F982F8827A5
:10040000820F911DA11DB11DBC01CD0142E0660FFF
:10041000771F881F991F4A95D1F708958F929F9251
:10042000AF92BF92CF92DF92EF92FF926B017C016D
:100430000E94E9014B015C01C114D104E104F10403
:10044000F1F00E94E901DC01CB0188199909AA09A0
:10045000BB09883E9340A105B10570F321E0C21AA3
:10046000D108E108F10888EE880E83E0981EA11CEF
:10047000B11CC114D104E104F10419F7DDCFFF90E0
:10048000EF90DF90CF90BF90AF909F908F900895A6
:10049000CF92DF92EF92FF920F931F93CF93DF9350
:1004A0006C017A018B01C0E0D0E0CE15DF0581F050
:1004B000D8016D918D01D601ED91FC910190F081F3
:1004C000E02DC6010995892B11F02196EECF7E0112
:1004D000C701DF91CF911F910F91FF90EF90DF90B7
:1004E000CF900895089580E090E00895FC01538D29
:1004F000448D252F30E0842F90E0821B930B5417FE
:1005000010F0CF96089501970895FC01918D828D8A
:10051000981761F0828DDF01A80FB11D5D968C9157
:10052000928D9F5F9F73928F90E008958FEF9FEF62
:100530000895FC01918D828D981731F0828DE80F1E
:10054000F11D858D90E008958FEF9FEF0895FC01D8
:10055000918D228D892F90E0805C9F4F821B9109A5
:100560008F739927089585E791E00E94A70221E003
:10057000892B09F420E0822F0895FC01848DDF018E
:10058000A80FB11DA35ABF4F2C91848D90E0019606
:100590008F739927848FA689B7892C93A089B189F5
:1005A0008C91837080648C93938D848D981306C096
:1005B0000288F389E02D80818F7D80830895EF92FA
:1005C000FF920F931F93CF93DF93EC0181E0888F0D
:1005D0009B8D8C8D981305C0E889F989808185FDF4
:1005E00026C0F62E0B8D10E00F5F1F4F0F731127E3
:1005F000E02E8C8DE8120CC00FB607FCFACFE8890C
:10060000F989808185FFF5CFCE010E94BD02F1CF2F
:100610008B8DFE01E80FF11DE35AFF4FF0829FB76B
:10062000F8940B8FEA89FB89808180620AC09FB7AA
:10063000F894EE89FF896083E889F9898081837065
:10064000806480839FBF81E090E0DF91CF911F9114
:100650000F91FF90EF900895CF93DF93EC01888D79
:100660008823C9F0EA89FB89808185FD05C0A889B6
:10067000B9898C9186FD0FC00FB607FCF5CF80813C
:1006800085FFF2CFA889B9898C9185FFEDCFCE0186
:100690000E94BD02E7CFDF91CF91089580E090E006
:1006A000892B29F00E94B30281110C940000089557
:1006B0002F923F924F925F926F927F928F929F9272
:1006C000AF92BF92CF92DF92EF92FF920F931F9360
:1006D000CF93DF93CDB7DEB72A970FB6F894DEBF7E
:1006E0000FBECDBF6C01990FEE08FF086090290284
:1006F000A62CB12CC501880F991F880F991FFC01EA
:10070000EF5CFE4F40815181628173818E010F5FEA
:100710001F4FC416D506E606F706A4F4FC01E35DF8
:10072000FE4F408151816281738181E090E0A0E0C1
:10073000B0E0841B950BA60BB70BC816D906EA06CA
:10074000FB0664F4F80185E29E2F901B961520F0BD
:100750008CE292E0D80158C08193F6CFF7FE0DC02D
:1007600085E28983F094E094D094C094C11CD11C9C
:10077000E11CF11C7724739401C0712CC501019711
:100780009A878987761430F5872C912CE985FA852C
:10079000E819F909EE0FFF1FEE0FFF1FEF5CFE4F88
:1007A0002080318042805380C701B601A2019101AF
:1007B0000E94FB06F801E80DF91D2083A22FB0E08E
:1007C000A20191010E941A07C61AD70AE80AF90A7B
:1007D0007394D8CF809118028111BACF91E0A91AF1
:1007E000B10824E2E82FF0E0EA15FB050CF0B0CFE9
:1007F000E00FF11F9081911102C0208303C09A3055
:1008000008F4A6CF8F5FEECF2A2F201B261548F4C1
:10081000ED91F0E0E85FFE4F2081FC012193CF01D4
:10082000F3CF80911702811175C00E94E9014091B8
:100830003C02009134021091350220913602309131
:1008400037026B017C01C01AD10AE20AF30A442381
:1008500029F000913A0210913B0204C00091380245
:1008600010913902012E000C220B330BC016D10659
:10087000E206F30608F486C06093340270933502F2
:10088000809336029093370290911602911123C003
:10089000442319F010923C020EC080912B020E945A
:1008A0002B0180913A0290913B02892B21F081E04B
:1008B00080933C0267C080912B028F5F80932B0254
:1008C00090912A02891710F010922B0280912B022E
:1008D0000E94740157C0442319F010923C020AC0D0
:1008E00080912B020E940D0180913A0290913B026F
:1008F000892BE9F680912B028F5F80932B029091D8
:100900002902891710F010922B0280912B020E946D
:10091000490138C08091160210E081112FC08091EA
:100920002A02181778F5812F0E94740180913802ED
:10093000909139020E94DE01812F0E942B0180914B
:100940003A0290913B02009711F00E94DE011F5F76
:10095000E6CF812F0E94490180913802909139029F
:100960000E94DE01812F0E940D0180913A02909138
:100970003B02009711F00E94DE011F5F8091290267
:10098000181738F364EF71E080E090E02A960FB614
:10099000F894DEBF0FBECDBFDF91CF911F910F91B5
:1009A000FF90EF90DF90CF90BF90AF909F908F908F
:1009B0007F906F905F904F903F902F900C940E021D
:1009C0000E945C071F920F920FB60F9211242F9373
:1009D0003F938F939F93AF93BF9380916D019091BD
:1009E0006E01A0916F01B091700130916C0123E014
:1009F000230F2D3720F40196A11DB11D05C026E857
:100A0000230F0296A11DB11D20936C0180936D01EF
:100A100090936E01A0936F01B0937001809171016A
:100A200090917201A0917301B09174010196A11D82
:100A3000B11D8093710190937201A0937301B093E3
:100A40007401BF91AF919F918F913F912F910F9022
:100A50000FBE0F901F9018951F920F920FB60F9216
:100A600011242F933F934F935F936F937F938F93B3
:100A70009F93AF93BF93EF93FF9385E791E00E941D
:100A8000BD02FF91EF91BF91AF919F918F917F91A7
:100A90006F915F914F913F912F910F900FBE0F90EB
:100AA0001F9018951F920F920FB60F9211242F933B
:100AB0008F939F93EF93FF93E0918501F0918601CF
:100AC0008081E0918B01F0918C0182FD12C09081B8
:100AD00080918E018F5F8F7320918F01821751F06B
:100AE000E0918E01F0E0EB58FE4F958F80938E01E0
:100AF00001C08081FF91EF919F918F912F910F9075
:100B00000FBE0F901F901895E5E7F1E01382128257
:100B100088EE93E0A0E0B0E084839583A683B7835A
:100B20008DE591E09183808385EC90E095878487C3
:100B300084EC90E09787868780EC90E0918B808BA7
:100B400081EC90E0938B828B82EC90E0958B848B90
:100B500086EC90E0978B868B118E128E138E148EFE
:100B6000E2E1F2E080ED97E097A386A311A610A63C
:100B700012A6178A118E12A213A214A215A2148211
:100B800015820895CF93DF93CDB7DEB729970FB6BF
:100B9000F894DEBF0FBECDBF789484B5826084BD6B
:100BA00084B5816084BD85B5826085BD85B5816071
:100BB00085BD80916E00816080936E0010928100EF
:100BC00080918100826080938100809181008160AA
:100BD000809381008091800081608093800080916B
:100BE000B10084608093B1008091B00081608093F7
:100BF000B00080917A00846080937A0080917A00BE
:100C0000826080937A0080917A00816080937A007C
:100C100080917A00806880937A001092C10088E009
:100C2000E0E0F1E0DE01119601900D928A95E1F786
:100C300081E080931602109217021092180280939E
:100C4000290298E090932A021092120280931402D3
:100C50008093130210921502FE013196A1E2B2E0D8
:100C6000CE01099621912D93E817F907D9F78985C7
:100C70008093190210E080912902181710F010E0FB
:100C800013C0812F90E09C012E5E3D4F790161E001
:100C9000F90187810E94A20160911302F701878107
:100CA0000E94DE001F5FE7CF80912A02181798F498
:100CB000812F90E09C012E5E3D4F790161E0F901AA
:100CC00087850E94A20160911502F70187850E9425
:100CD000DE001F5FE9CF90912902ECE2F2E080E0B4
:100CE000981719F011928F5FFBCF80E00E942B01C3
:100CF00080E00E940D0188E097E090933902809394
:100D0000380210923B0210923A0210923C0260E0CC
:100D100082E00E94A20160E083E00E94A201E091D3
:100D20008501F091860182E08083E0918101F0915C
:100D300082011082E0918301F09184018FEC808325
:100D400010928D01E0918901F0918A0186E0808303
:100D5000E0918701F0918801808180618083E0913A
:100D60008701F0918801808188608083E09187010C
:100D7000F0918801808180688083E0918701F09103
:100D8000880180818F7D808383E00E94B5008C0183
:100D900082E00E94B500892BC1F4012B59F400E0D8
:100DA00010E0C8010E9458030F5F1F4F0730110564
:100DB000C1F71EC000E010E0C8010E9458030F5F99
:100DC0001F4F0A301105C1F713C0012B59F400E081
:100DD00010E0C8010E9458030F5F1F4F0530110536
:100DE000C1F706C064E670E080E090E00E940E0269
:100DF0000E944E03C9CF052E97FB1EF400940E945B
:100E0000120757FD07D00E94250707FC03D04EF4B8
:100E10000C94120750954095309521953F4F4F4FB8
:100E20005F4F089590958095709561957F4F8F4F96
:100E30009F4F08950E944707A59F900DB49F900D66
:100E4000A49F800D911D11240895A1E21A2EAA1BC2
:100E5000BB1BFD010DC0AA1FBB1FEE1FFF1FA2176A
:100E6000B307E407F50720F0A21BB30BE40BF50B67
:100E7000661F771F881F991F1A9469F760957095F0
:100E8000809590959B01AC01BD01CF010895A29F73
:100E9000B001B39FC001A39F700D811D1124911D4E
:100EA000B29F700D811D1124911D0895EE0FFF1F3B
:100EB0000590F491E02D099481E090E0F8940C9471
:060EC0006107F894FFCF6A
:100EC6000B0A0908070605043F065B4F666D7D079A
:100ED6007F6F777C395E79713D76300E76380054B7
:100EE6003F7367506D783E3E00766E5B00408063D0
:100EF60008010000000A00000064000000E803008A
:100F06000010270000A086010040420F008096983E
:100F16000000E1F50500CA9A3B00000000DF024828
:0C0F26000276022C03A70285029902004B
:107E0000112484B714BE81FFF0D085E080938100F7
:107E100082E08093C00088E18093C10086E0809377
:107E2000C20080E18093C4008EE0C9D0259A86E02C
:107E300020E33CEF91E0309385002093840096BBD3
:107E4000B09BFECF1D9AA8958150A9F7CC24DD24C4
:107E500088248394B5E0AB2EA1E19A2EF3E0BF2EE7
:107E6000A2D0813461F49FD0082FAFD0023811F036
:107E7000013811F484E001C083E08DD089C08234E0
:107E800011F484E103C0853419F485E0A6D080C0E4
:107E9000853579F488D0E82EFF2485D0082F10E0AE
:107EA000102F00270E291F29000F111F8ED06801E7
:107EB0006FC0863521F484E090D080E0DECF843638
:107EC00009F040C070D06FD0082F6DD080E0C81688
:107ED00080E7D80618F4F601B7BEE895C0E0D1E017
:107EE00062D089930C17E1F7F0E0CF16F0E7DF06D8
:107EF00018F0F601B7BEE89568D007B600FCFDCFD4
:107F0000A601A0E0B1E02C9130E011968C91119780
:107F100090E0982F8827822B932B1296FA010C0160
:107F200087BEE89511244E5F5F4FF1E0A038BF0790
:107F300051F7F601A7BEE89507B600FCFDCF97BE46
:107F4000E89526C08437B1F42ED02DD0F82E2BD052
:107F50003CD0F601EF2C8F010F5F1F4F84911BD097
:107F6000EA94F801C1F70894C11CD11CFA94CF0C13
:107F7000D11C0EC0853739F428D08EE10CD085E9AC
:107F80000AD08FE07ACF813511F488E018D01DD067
:107F900080E101D065CF982F8091C00085FFFCCF94
:107FA0009093C60008958091C00087FFFCCF809118
:107FB000C00084FD01C0A8958091C6000895E0E648
:107FC000F0E098E1908380830895EDDF803219F02E
:107FD00088E0F5DFFFCF84E1DECF1F93182FE3DFCA
:107FE0001150E9F7F2DF1F91089580E0E8DFEE27F6
:047FF000FF270994CA
:027FFE00040479
:0400000300007E007B
:00000001FF
